{
	"contracts/tamrin.sol": {
		"tamrin": {
			"abi": [
				{
					"inputs": [],
					"stateMutability": "nonpayable",
					"type": "constructor"
				},
				{
					"inputs": [
						{
							"internalType": "uint256",
							"name": "price",
							"type": "uint256"
						}
					],
					"name": "addUserPrice",
					"outputs": [
						{
							"internalType": "string",
							"name": "",
							"type": "string"
						}
					],
					"stateMutability": "nonpayable",
					"type": "function"
				},
				{
					"inputs": [],
					"name": "getCurrentDate",
					"outputs": [
						{
							"internalType": "string",
							"name": "",
							"type": "string"
						}
					],
					"stateMutability": "view",
					"type": "function"
				},
				{
					"inputs": [],
					"name": "getUsers",
					"outputs": [
						{
							"internalType": "address[]",
							"name": "",
							"type": "address[]"
						}
					],
					"stateMutability": "view",
					"type": "function"
				},
				{
					"inputs": [
						{
							"internalType": "address",
							"name": "addr",
							"type": "address"
						}
					],
					"name": "removePrice",
					"outputs": [
						{
							"internalType": "string",
							"name": "",
							"type": "string"
						}
					],
					"stateMutability": "nonpayable",
					"type": "function"
				}
			],
			"devdoc": {
				"kind": "dev",
				"methods": {},
				"version": 1
			},
			"evm": {
				"assembly": "    /* \"contracts/tamrin.sol\":86:1902  contract tamrin{... */\n  mstore(0x40, 0x80)\n    /* \"contracts/tamrin.sol\":125:126  0 */\n  0x00\n    /* \"contracts/tamrin.sol\":108:126  uint maxUserID = 0 */\n  dup1\n  sstore\n    /* \"contracts/tamrin.sol\":279:283  true */\n  0x01\n    /* \"contracts/tamrin.sol\":265:283  bool status = true */\n  0x04\n  exp(0x0100, 0x14)\n  dup2\n  sload\n  dup2\n  0xff\n  mul\n  not\n  and\n  swap1\n  dup4\n  iszero\n  iszero\n  mul\n  or\n  swap1\n  sstore\n  pop\n    /* \"contracts/tamrin.sol\":290:340  constructor(){... */\n  callvalue\n  dup1\n  iszero\n  tag_1\n  jumpi\n  0x00\n  dup1\n  revert\ntag_1:\n  pop\n    /* \"contracts/tamrin.sol\":322:332  msg.sender */\n  caller\n    /* \"contracts/tamrin.sol\":314:319  owner */\n  0x04\n  0x00\n    /* \"contracts/tamrin.sol\":314:332  owner = msg.sender */\n  0x0100\n  exp\n  dup2\n  sload\n  dup2\n  0xffffffffffffffffffffffffffffffffffffffff\n  mul\n  not\n  and\n  swap1\n  dup4\n  0xffffffffffffffffffffffffffffffffffffffff\n  and\n  mul\n  or\n  swap1\n  sstore\n  pop\n    /* \"contracts/tamrin.sol\":86:1902  contract tamrin{... */\n  dataSize(sub_0)\n  dup1\n  dataOffset(sub_0)\n  0x00\n  codecopy\n  0x00\n  return\nstop\n\nsub_0: assembly {\n        /* \"contracts/tamrin.sol\":86:1902  contract tamrin{... */\n      mstore(0x40, 0x80)\n      callvalue\n      dup1\n      iszero\n      tag_1\n      jumpi\n      0x00\n      dup1\n      revert\n    tag_1:\n      pop\n      jumpi(tag_2, lt(calldatasize, 0x04))\n      shr(0xe0, calldataload(0x00))\n      dup1\n      0xce8e3e\n      eq\n      tag_3\n      jumpi\n      dup1\n      0x9254d772\n      eq\n      tag_4\n      jumpi\n      dup1\n      0xbab1dac8\n      eq\n      tag_5\n      jumpi\n      dup1\n      0xf4961fa3\n      eq\n      tag_6\n      jumpi\n    tag_2:\n      0x00\n      dup1\n      revert\n        /* \"contracts/tamrin.sol\":1332:1426  function getUsers()public view returns(address[] memory)... */\n    tag_3:\n      tag_7\n      tag_8\n      jump\t// in\n    tag_7:\n      mload(0x40)\n      tag_9\n      swap2\n      swap1\n      tag_10\n      jump\t// in\n    tag_9:\n      mload(0x40)\n      dup1\n      swap2\n      sub\n      swap1\n      return\n        /* \"contracts/tamrin.sol\":1197:1326  function getCurrentDate() public view returns(string memory)... */\n    tag_4:\n      tag_11\n      tag_12\n      jump\t// in\n    tag_11:\n      mload(0x40)\n      tag_13\n      swap2\n      swap1\n      tag_14\n      jump\t// in\n    tag_13:\n      mload(0x40)\n      dup1\n      swap2\n      sub\n      swap1\n      return\n        /* \"contracts/tamrin.sol\":377:722  function addUserPrice(uint price) public returns(string memory)... */\n    tag_5:\n      tag_15\n      0x04\n      dup1\n      calldatasize\n      sub\n      dup2\n      add\n      swap1\n      tag_16\n      swap2\n      swap1\n      tag_17\n      jump\t// in\n    tag_16:\n      tag_18\n      jump\t// in\n    tag_15:\n      mload(0x40)\n      tag_19\n      swap2\n      swap1\n      tag_14\n      jump\t// in\n    tag_19:\n      mload(0x40)\n      dup1\n      swap2\n      sub\n      swap1\n      return\n        /* \"contracts/tamrin.sol\":730:1189  function removePrice(address addr) public returns(string memory)... */\n    tag_6:\n      tag_20\n      0x04\n      dup1\n      calldatasize\n      sub\n      dup2\n      add\n      swap1\n      tag_21\n      swap2\n      swap1\n      tag_22\n      jump\t// in\n    tag_21:\n      tag_23\n      jump\t// in\n    tag_20:\n      mload(0x40)\n      tag_24\n      swap2\n      swap1\n      tag_14\n      jump\t// in\n    tag_24:\n      mload(0x40)\n      dup1\n      swap2\n      sub\n      swap1\n      return\n        /* \"contracts/tamrin.sol\":1332:1426  function getUsers()public view returns(address[] memory)... */\n    tag_8:\n        /* \"contracts/tamrin.sol\":1371:1387  address[] memory */\n      0x60\n        /* \"contracts/tamrin.sol\":1412:1418  _users */\n      0x03\n        /* \"contracts/tamrin.sol\":1405:1418  return _users */\n      dup1\n      sload\n      dup1\n      0x20\n      mul\n      0x20\n      add\n      mload(0x40)\n      swap1\n      dup2\n      add\n      0x40\n      mstore\n      dup1\n      swap3\n      swap2\n      swap1\n      dup2\n      dup2\n      mstore\n      0x20\n      add\n      dup3\n      dup1\n      sload\n      dup1\n      iszero\n      tag_26\n      jumpi\n      0x20\n      mul\n      dup3\n      add\n      swap2\n      swap1\n      0x00\n      mstore\n      keccak256(0x00, 0x20)\n      swap1\n    tag_27:\n      dup2\n      0x00\n      swap1\n      sload\n      swap1\n      0x0100\n      exp\n      swap1\n      div\n      0xffffffffffffffffffffffffffffffffffffffff\n      and\n      0xffffffffffffffffffffffffffffffffffffffff\n      and\n      dup2\n      mstore\n      0x20\n      add\n      swap1\n      0x01\n      add\n      swap1\n      dup1\n      dup4\n      gt\n      tag_27\n      jumpi\n    tag_26:\n      pop\n      pop\n      pop\n      pop\n      pop\n      swap1\n      pop\n        /* \"contracts/tamrin.sol\":1332:1426  function getUsers()public view returns(address[] memory)... */\n      swap1\n      jump\t// out\n        /* \"contracts/tamrin.sol\":1197:1326  function getCurrentDate() public view returns(string memory)... */\n    tag_12:\n        /* \"contracts/tamrin.sol\":1243:1256  string memory */\n      0x60\n        /* \"contracts/tamrin.sol\":1281:1318  libFunc.dateToString(block.timestamp) */\n      tag_29\n        /* \"contracts/tamrin.sol\":1302:1317  block.timestamp */\n      timestamp\n        /* \"contracts/tamrin.sol\":1281:1301  libFunc.dateToString */\n      tag_30\n        /* \"contracts/tamrin.sol\":1281:1318  libFunc.dateToString(block.timestamp) */\n      jump\t// in\n    tag_29:\n        /* \"contracts/tamrin.sol\":1274:1318  return libFunc.dateToString(block.timestamp) */\n      swap1\n      pop\n        /* \"contracts/tamrin.sol\":1197:1326  function getCurrentDate() public view returns(string memory)... */\n      swap1\n      jump\t// out\n        /* \"contracts/tamrin.sol\":377:722  function addUserPrice(uint price) public returns(string memory)... */\n    tag_18:\n        /* \"contracts/tamrin.sol\":426:439  string memory */\n      0x60\n        /* \"contracts/tamrin.sol\":472:473  0 */\n      0x00\n        /* \"contracts/tamrin.sol\":465:470  price */\n      dup3\n        /* \"contracts/tamrin.sol\":465:473  price >0 */\n      gt\n        /* \"contracts/tamrin.sol\":457:490  require(price >0,\"price is zero\") */\n      tag_32\n      jumpi\n      mload(0x40)\n      0x08c379a000000000000000000000000000000000000000000000000000000000\n      dup2\n      mstore\n      0x04\n      add\n      tag_33\n      swap1\n      tag_34\n      jump\t// in\n    tag_33:\n      mload(0x40)\n      dup1\n      swap2\n      sub\n      swap1\n      revert\n    tag_32:\n        /* \"contracts/tamrin.sol\":528:533  price */\n      dup2\n        /* \"contracts/tamrin.sol\":501:513  _usersPrices */\n      0x01\n        /* \"contracts/tamrin.sol\":501:525  _usersPrices[msg.sender] */\n      0x00\n        /* \"contracts/tamrin.sol\":514:524  msg.sender */\n      caller\n        /* \"contracts/tamrin.sol\":501:525  _usersPrices[msg.sender] */\n      0xffffffffffffffffffffffffffffffffffffffff\n      and\n      0xffffffffffffffffffffffffffffffffffffffff\n      and\n      dup2\n      mstore\n      0x20\n      add\n      swap1\n      dup2\n      mstore\n      0x20\n      add\n      0x00\n      keccak256\n        /* \"contracts/tamrin.sol\":501:533  _usersPrices[msg.sender] = price */\n      dup2\n      swap1\n      sstore\n      pop\n        /* \"contracts/tamrin.sol\":549:560  _checkUsers */\n      0x02\n        /* \"contracts/tamrin.sol\":549:572  _checkUsers[msg.sender] */\n      0x00\n        /* \"contracts/tamrin.sol\":561:571  msg.sender */\n      caller\n        /* \"contracts/tamrin.sol\":549:572  _checkUsers[msg.sender] */\n      0xffffffffffffffffffffffffffffffffffffffff\n      and\n      0xffffffffffffffffffffffffffffffffffffffff\n      and\n      dup2\n      mstore\n      0x20\n      add\n      swap1\n      dup2\n      mstore\n      0x20\n      add\n      0x00\n      keccak256\n      0x00\n      swap1\n      sload\n      swap1\n      0x0100\n      exp\n      swap1\n      div\n      0xff\n      and\n        /* \"contracts/tamrin.sol\":544:678  if (!_checkUsers[msg.sender])... */\n      tag_35\n      jumpi\n        /* \"contracts/tamrin.sol\":624:628  true */\n      0x01\n        /* \"contracts/tamrin.sol\":598:609  _checkUsers */\n      0x02\n        /* \"contracts/tamrin.sol\":598:621  _checkUsers[msg.sender] */\n      0x00\n        /* \"contracts/tamrin.sol\":610:620  msg.sender */\n      caller\n        /* \"contracts/tamrin.sol\":598:621  _checkUsers[msg.sender] */\n      0xffffffffffffffffffffffffffffffffffffffff\n      and\n      0xffffffffffffffffffffffffffffffffffffffff\n      and\n      dup2\n      mstore\n      0x20\n      add\n      swap1\n      dup2\n      mstore\n      0x20\n      add\n      0x00\n      keccak256\n      0x00\n        /* \"contracts/tamrin.sol\":598:628  _checkUsers[msg.sender] = true */\n      0x0100\n      exp\n      dup2\n      sload\n      dup2\n      0xff\n      mul\n      not\n      and\n      swap1\n      dup4\n      iszero\n      iszero\n      mul\n      or\n      swap1\n      sstore\n      pop\n        /* \"contracts/tamrin.sol\":643:649  _users */\n      0x03\n        /* \"contracts/tamrin.sol\":655:665  msg.sender */\n      caller\n        /* \"contracts/tamrin.sol\":643:666  _users.push(msg.sender) */\n      swap1\n      dup1\n      0x01\n      dup2\n      sload\n      add\n      dup1\n      dup3\n      sstore\n      dup1\n      swap2\n      pop\n      pop\n      0x01\n      swap1\n      sub\n      swap1\n      0x00\n      mstore\n      keccak256(0x00, 0x20)\n      add\n      0x00\n      swap1\n      swap2\n      swap1\n      swap2\n      swap1\n      swap2\n      0x0100\n      exp\n      dup2\n      sload\n      dup2\n      0xffffffffffffffffffffffffffffffffffffffff\n      mul\n      not\n      and\n      swap1\n      dup4\n      0xffffffffffffffffffffffffffffffffffffffff\n      and\n      mul\n      or\n      swap1\n      sstore\n      pop\n        /* \"contracts/tamrin.sol\":544:678  if (!_checkUsers[msg.sender])... */\n    tag_35:\n        /* \"contracts/tamrin.sol\":695:714  price.intToString() */\n      tag_37\n        /* \"contracts/tamrin.sol\":695:700  price */\n      dup3\n        /* \"contracts/tamrin.sol\":695:712  price.intToString */\n      tag_38\n        /* \"contracts/tamrin.sol\":695:714  price.intToString() */\n      jump\t// in\n    tag_37:\n        /* \"contracts/tamrin.sol\":688:714  return price.intToString() */\n      swap1\n      pop\n        /* \"contracts/tamrin.sol\":377:722  function addUserPrice(uint price) public returns(string memory)... */\n      swap2\n      swap1\n      pop\n      jump\t// out\n        /* \"contracts/tamrin.sol\":730:1189  function removePrice(address addr) public returns(string memory)... */\n    tag_23:\n        /* \"contracts/tamrin.sol\":780:793  string memory */\n      0x60\n        /* \"contracts/tamrin.sol\":818:830  _usersPrices */\n      0x01\n        /* \"contracts/tamrin.sol\":818:836  _usersPrices[addr] */\n      0x00\n        /* \"contracts/tamrin.sol\":831:835  addr */\n      dup4\n        /* \"contracts/tamrin.sol\":818:836  _usersPrices[addr] */\n      0xffffffffffffffffffffffffffffffffffffffff\n      and\n      0xffffffffffffffffffffffffffffffffffffffff\n      and\n      dup2\n      mstore\n      0x20\n      add\n      swap1\n      dup2\n      mstore\n      0x20\n      add\n      0x00\n      keccak256\n        /* \"contracts/tamrin.sol\":811:836  delete _usersPrices[addr] */\n      0x00\n      swap1\n      sstore\n        /* \"contracts/tamrin.sol\":873:878  false */\n      0x00\n        /* \"contracts/tamrin.sol\":847:858  _checkUsers */\n      0x02\n        /* \"contracts/tamrin.sol\":847:870  _checkUsers[msg.sender] */\n      0x00\n        /* \"contracts/tamrin.sol\":859:869  msg.sender */\n      caller\n        /* \"contracts/tamrin.sol\":847:870  _checkUsers[msg.sender] */\n      0xffffffffffffffffffffffffffffffffffffffff\n      and\n      0xffffffffffffffffffffffffffffffffffffffff\n      and\n      dup2\n      mstore\n      0x20\n      add\n      swap1\n      dup2\n      mstore\n      0x20\n      add\n      0x00\n      keccak256\n      0x00\n        /* \"contracts/tamrin.sol\":847:878  _checkUsers[msg.sender] = false */\n      0x0100\n      exp\n      dup2\n      sload\n      dup2\n      0xff\n      mul\n      not\n      and\n      swap1\n      dup4\n      iszero\n      iszero\n      mul\n      or\n      swap1\n      sstore\n      pop\n        /* \"contracts/tamrin.sol\":894:904  uint index */\n      0x00\n        /* \"contracts/tamrin.sol\":889:1160  for (uint index = 0; index < _users.length; index++) ... */\n    tag_40:\n        /* \"contracts/tamrin.sol\":918:924  _users */\n      0x03\n        /* \"contracts/tamrin.sol\":918:931  _users.length */\n      dup1\n      sload\n      swap1\n      pop\n        /* \"contracts/tamrin.sol\":910:915  index */\n      dup2\n        /* \"contracts/tamrin.sol\":910:931  index < _users.length */\n      lt\n        /* \"contracts/tamrin.sol\":889:1160  for (uint index = 0; index < _users.length; index++) ... */\n      iszero\n      tag_41\n      jumpi\n        /* \"contracts/tamrin.sol\":988:992  addr */\n      dup3\n        /* \"contracts/tamrin.sol\":971:992  _users[index] == addr */\n      0xffffffffffffffffffffffffffffffffffffffff\n      and\n        /* \"contracts/tamrin.sol\":971:977  _users */\n      0x03\n        /* \"contracts/tamrin.sol\":978:983  index */\n      dup3\n        /* \"contracts/tamrin.sol\":971:984  _users[index] */\n      dup2\n      sload\n      dup2\n      lt\n      tag_43\n      jumpi\n      tag_44\n      tag_45\n      jump\t// in\n    tag_44:\n    tag_43:\n      swap1\n      0x00\n      mstore\n      keccak256(0x00, 0x20)\n      add\n      0x00\n      swap1\n      sload\n      swap1\n      0x0100\n      exp\n      swap1\n      div\n      0xffffffffffffffffffffffffffffffffffffffff\n      and\n        /* \"contracts/tamrin.sol\":971:992  _users[index] == addr */\n      0xffffffffffffffffffffffffffffffffffffffff\n      and\n      sub\n        /* \"contracts/tamrin.sol\":967:1141  if (_users[index] == addr)    ... */\n      tag_47\n      jumpi\n        /* \"contracts/tamrin.sol\":1046:1052  _users */\n      0x03\n        /* \"contracts/tamrin.sol\":1067:1068  1 */\n      0x01\n        /* \"contracts/tamrin.sol\":1053:1059  _users */\n      0x03\n        /* \"contracts/tamrin.sol\":1053:1066  _users.length */\n      dup1\n      sload\n      swap1\n      pop\n        /* \"contracts/tamrin.sol\":1053:1068  _users.length-1 */\n      tag_48\n      swap2\n      swap1\n      tag_49\n      jump\t// in\n    tag_48:\n        /* \"contracts/tamrin.sol\":1046:1069  _users[_users.length-1] */\n      dup2\n      sload\n      dup2\n      lt\n      tag_50\n      jumpi\n      tag_51\n      tag_45\n      jump\t// in\n    tag_51:\n    tag_50:\n      swap1\n      0x00\n      mstore\n      keccak256(0x00, 0x20)\n      add\n      0x00\n      swap1\n      sload\n      swap1\n      0x0100\n      exp\n      swap1\n      div\n      0xffffffffffffffffffffffffffffffffffffffff\n      and\n        /* \"contracts/tamrin.sol\":1030:1036  _users */\n      0x03\n        /* \"contracts/tamrin.sol\":1037:1042  index */\n      dup3\n        /* \"contracts/tamrin.sol\":1030:1043  _users[index] */\n      dup2\n      sload\n      dup2\n      lt\n      tag_53\n      jumpi\n      tag_54\n      tag_45\n      jump\t// in\n    tag_54:\n    tag_53:\n      swap1\n      0x00\n      mstore\n      keccak256(0x00, 0x20)\n      add\n      0x00\n        /* \"contracts/tamrin.sol\":1030:1069  _users[index] = _users[_users.length-1] */\n      0x0100\n      exp\n      dup2\n      sload\n      dup2\n      0xffffffffffffffffffffffffffffffffffffffff\n      mul\n      not\n      and\n      swap1\n      dup4\n      0xffffffffffffffffffffffffffffffffffffffff\n      and\n      mul\n      or\n      swap1\n      sstore\n      pop\n        /* \"contracts/tamrin.sol\":1088:1094  _users */\n      0x03\n        /* \"contracts/tamrin.sol\":1088:1100  _users.pop() */\n      dup1\n      sload\n      dup1\n      tag_56\n      jumpi\n      tag_57\n      tag_58\n      jump\t// in\n    tag_57:\n    tag_56:\n      0x01\n      swap1\n      sub\n      dup2\n      dup2\n      swap1\n      0x00\n      mstore\n      keccak256(0x00, 0x20)\n      add\n      exp(0x0100, 0x00)\n      dup2\n      sload\n      swap1\n      0xffffffffffffffffffffffffffffffffffffffff\n      mul\n      not\n      and\n      swap1\n      sstore\n      swap1\n      sstore\n        /* \"contracts/tamrin.sol\":1119:1124  break */\n      jump(tag_41)\n        /* \"contracts/tamrin.sol\":967:1141  if (_users[index] == addr)    ... */\n    tag_47:\n        /* \"contracts/tamrin.sol\":933:940  index++ */\n      dup1\n      dup1\n      0x01\n      add\n      swap2\n      pop\n      pop\n        /* \"contracts/tamrin.sol\":889:1160  for (uint index = 0; index < _users.length; index++) ... */\n      jump(tag_40)\n    tag_41:\n      pop\n        /* \"contracts/tamrin.sol\":1170:1181  return \"OK\" */\n      mload(0x40)\n      dup1\n      0x40\n      add\n      0x40\n      mstore\n      dup1\n      0x02\n      dup2\n      mstore\n      0x20\n      add\n      0x4f4b000000000000000000000000000000000000000000000000000000000000\n      dup2\n      mstore\n      pop\n      swap1\n      pop\n        /* \"contracts/tamrin.sol\":730:1189  function removePrice(address addr) public returns(string memory)... */\n      swap2\n      swap1\n      pop\n      jump\t// out\n        /* \"contracts/libFunc.sol\":1152:2602  function dateToString(uint timestamp) internal pure returns (string memory) {... */\n    tag_30:\n        /* \"contracts/libFunc.sol\":1213:1226  string memory */\n      0x60\n        /* \"contracts/libFunc.sol\":1239:1248  uint year */\n      0x00\n        /* \"contracts/libFunc.sol\":1251:1255  1970 */\n      0x07b2\n        /* \"contracts/libFunc.sol\":1239:1255  uint year = 1970 */\n      swap1\n      pop\n        /* \"contracts/libFunc.sol\":1266:1280  uint totalDays */\n      0x00\n        /* \"contracts/libFunc.sol\":119:131  24 * 60 * 60 */\n      0x015180\n        /* \"contracts/libFunc.sol\":1283:1292  timestamp */\n      dup5\n        /* \"contracts/libFunc.sol\":1283:1310  timestamp / SECONDS_PER_DAY */\n      tag_61\n      swap2\n      swap1\n      tag_62\n      jump\t// in\n    tag_61:\n        /* \"contracts/libFunc.sol\":1266:1310  uint totalDays = timestamp / SECONDS_PER_DAY */\n      swap1\n      pop\n        /* \"contracts/libFunc.sol\":1363:1729  while (totalDays >= DAYS_IN_YEAR) {... */\n    tag_63:\n        /* \"contracts/libFunc.sol\":167:170  365 */\n      0x016d\n        /* \"contracts/libFunc.sol\":1370:1379  totalDays */\n      dup2\n        /* \"contracts/libFunc.sol\":1370:1395  totalDays >= DAYS_IN_YEAR */\n      lt\n        /* \"contracts/libFunc.sol\":1363:1729  while (totalDays >= DAYS_IN_YEAR) {... */\n      tag_64\n      jumpi\n        /* \"contracts/libFunc.sol\":1416:1432  isLeapYear(year) */\n      tag_65\n        /* \"contracts/libFunc.sol\":1427:1431  year */\n      dup3\n        /* \"contracts/libFunc.sol\":1416:1426  isLeapYear */\n      tag_66\n        /* \"contracts/libFunc.sol\":1416:1432  isLeapYear(year) */\n      jump\t// in\n    tag_65:\n        /* \"contracts/libFunc.sol\":1412:1697  if (isLeapYear(year)) {... */\n      iszero\n      tag_67\n      jumpi\n        /* \"contracts/libFunc.sol\":211:214  366 */\n      0x016e\n        /* \"contracts/libFunc.sol\":1457:1466  totalDays */\n      dup2\n        /* \"contracts/libFunc.sol\":1457:1487  totalDays >= DAYS_IN_LEAP_YEAR */\n      lt\n        /* \"contracts/libFunc.sol\":1453:1616  if (totalDays >= DAYS_IN_LEAP_YEAR) {... */\n      tag_68\n      jumpi\n        /* \"contracts/libFunc.sol\":211:214  366 */\n      0x016e\n        /* \"contracts/libFunc.sol\":1512:1542  totalDays -= DAYS_IN_LEAP_YEAR */\n      dup2\n      tag_69\n      swap2\n      swap1\n      tag_49\n      jump\t// in\n    tag_69:\n      swap1\n      pop\n        /* \"contracts/libFunc.sol\":1453:1616  if (totalDays >= DAYS_IN_LEAP_YEAR) {... */\n      jump(tag_70)\n    tag_68:\n        /* \"contracts/libFunc.sol\":1591:1596  break */\n      jump(tag_64)\n        /* \"contracts/libFunc.sol\":1453:1616  if (totalDays >= DAYS_IN_LEAP_YEAR) {... */\n    tag_70:\n        /* \"contracts/libFunc.sol\":1412:1697  if (isLeapYear(year)) {... */\n      jump(tag_71)\n    tag_67:\n        /* \"contracts/libFunc.sol\":167:170  365 */\n      0x016d\n        /* \"contracts/libFunc.sol\":1656:1681  totalDays -= DAYS_IN_YEAR */\n      dup2\n      tag_72\n      swap2\n      swap1\n      tag_49\n      jump\t// in\n    tag_72:\n      swap1\n      pop\n        /* \"contracts/libFunc.sol\":1412:1697  if (isLeapYear(year)) {... */\n    tag_71:\n        /* \"contracts/libFunc.sol\":1711:1717  year++ */\n      dup2\n      dup1\n      tag_73\n      swap1\n      tag_74\n      jump\t// in\n    tag_73:\n      swap3\n      pop\n      pop\n        /* \"contracts/libFunc.sol\":1363:1729  while (totalDays >= DAYS_IN_YEAR) {... */\n      jump(tag_63)\n    tag_64:\n        /* \"contracts/libFunc.sol\":1783:1808  uint[12] memory monthDays */\n      0x00\n        /* \"contracts/libFunc.sol\":1783:1889  uint[12] memory monthDays = [uint(31), isLeapYear(year) ? 29 : 28, 31, 30, 31, 30, 31, 31, 30, 31, 30, 31] */\n      mload(0x40)\n      dup1\n      0x0180\n      add\n      0x40\n      mstore\n      dup1\n        /* \"contracts/libFunc.sol\":1817:1819  31 */\n      0x1f\n        /* \"contracts/libFunc.sol\":1783:1889  uint[12] memory monthDays = [uint(31), isLeapYear(year) ? 29 : 28, 31, 30, 31, 30, 31, 31, 30, 31, 30, 31] */\n      dup2\n      mstore\n      0x20\n      add\n        /* \"contracts/libFunc.sol\":1822:1838  isLeapYear(year) */\n      tag_75\n        /* \"contracts/libFunc.sol\":1833:1837  year */\n      dup6\n        /* \"contracts/libFunc.sol\":1822:1832  isLeapYear */\n      tag_66\n        /* \"contracts/libFunc.sol\":1822:1838  isLeapYear(year) */\n      jump\t// in\n    tag_75:\n        /* \"contracts/libFunc.sol\":1822:1848  isLeapYear(year) ? 29 : 28 */\n      tag_76\n      jumpi\n        /* \"contracts/libFunc.sol\":1846:1848  28 */\n      0x1c\n        /* \"contracts/libFunc.sol\":1822:1848  isLeapYear(year) ? 29 : 28 */\n      jump(tag_77)\n    tag_76:\n        /* \"contracts/libFunc.sol\":1841:1843  29 */\n      0x1d\n        /* \"contracts/libFunc.sol\":1822:1848  isLeapYear(year) ? 29 : 28 */\n    tag_77:\n        /* \"contracts/libFunc.sol\":1783:1889  uint[12] memory monthDays = [uint(31), isLeapYear(year) ? 29 : 28, 31, 30, 31, 30, 31, 31, 30, 31, 30, 31] */\n      0xff\n      and\n      dup2\n      mstore\n      0x20\n      add\n        /* \"contracts/libFunc.sol\":1850:1852  31 */\n      0x1f\n        /* \"contracts/libFunc.sol\":1783:1889  uint[12] memory monthDays = [uint(31), isLeapYear(year) ? 29 : 28, 31, 30, 31, 30, 31, 31, 30, 31, 30, 31] */\n      dup2\n      mstore\n      0x20\n      add\n        /* \"contracts/libFunc.sol\":1854:1856  30 */\n      0x1e\n        /* \"contracts/libFunc.sol\":1783:1889  uint[12] memory monthDays = [uint(31), isLeapYear(year) ? 29 : 28, 31, 30, 31, 30, 31, 31, 30, 31, 30, 31] */\n      dup2\n      mstore\n      0x20\n      add\n        /* \"contracts/libFunc.sol\":1858:1860  31 */\n      0x1f\n        /* \"contracts/libFunc.sol\":1783:1889  uint[12] memory monthDays = [uint(31), isLeapYear(year) ? 29 : 28, 31, 30, 31, 30, 31, 31, 30, 31, 30, 31] */\n      dup2\n      mstore\n      0x20\n      add\n        /* \"contracts/libFunc.sol\":1862:1864  30 */\n      0x1e\n        /* \"contracts/libFunc.sol\":1783:1889  uint[12] memory monthDays = [uint(31), isLeapYear(year) ? 29 : 28, 31, 30, 31, 30, 31, 31, 30, 31, 30, 31] */\n      dup2\n      mstore\n      0x20\n      add\n        /* \"contracts/libFunc.sol\":1866:1868  31 */\n      0x1f\n        /* \"contracts/libFunc.sol\":1783:1889  uint[12] memory monthDays = [uint(31), isLeapYear(year) ? 29 : 28, 31, 30, 31, 30, 31, 31, 30, 31, 30, 31] */\n      dup2\n      mstore\n      0x20\n      add\n        /* \"contracts/libFunc.sol\":1870:1872  31 */\n      0x1f\n        /* \"contracts/libFunc.sol\":1783:1889  uint[12] memory monthDays = [uint(31), isLeapYear(year) ? 29 : 28, 31, 30, 31, 30, 31, 31, 30, 31, 30, 31] */\n      dup2\n      mstore\n      0x20\n      add\n        /* \"contracts/libFunc.sol\":1874:1876  30 */\n      0x1e\n        /* \"contracts/libFunc.sol\":1783:1889  uint[12] memory monthDays = [uint(31), isLeapYear(year) ? 29 : 28, 31, 30, 31, 30, 31, 31, 30, 31, 30, 31] */\n      dup2\n      mstore\n      0x20\n      add\n        /* \"contracts/libFunc.sol\":1878:1880  31 */\n      0x1f\n        /* \"contracts/libFunc.sol\":1783:1889  uint[12] memory monthDays = [uint(31), isLeapYear(year) ? 29 : 28, 31, 30, 31, 30, 31, 31, 30, 31, 30, 31] */\n      dup2\n      mstore\n      0x20\n      add\n        /* \"contracts/libFunc.sol\":1882:1884  30 */\n      0x1e\n        /* \"contracts/libFunc.sol\":1783:1889  uint[12] memory monthDays = [uint(31), isLeapYear(year) ? 29 : 28, 31, 30, 31, 30, 31, 31, 30, 31, 30, 31] */\n      dup2\n      mstore\n      0x20\n      add\n        /* \"contracts/libFunc.sol\":1886:1888  31 */\n      0x1f\n        /* \"contracts/libFunc.sol\":1783:1889  uint[12] memory monthDays = [uint(31), isLeapYear(year) ? 29 : 28, 31, 30, 31, 30, 31, 31, 30, 31, 30, 31] */\n      dup2\n      mstore\n      pop\n      swap1\n      pop\n        /* \"contracts/libFunc.sol\":1900:1910  uint month */\n      0x00\n        /* \"contracts/libFunc.sol\":1921:2102  for (month = 0; month < 12; month++) {... */\n    tag_78:\n        /* \"contracts/libFunc.sol\":1945:1947  12 */\n      0x0c\n        /* \"contracts/libFunc.sol\":1937:1942  month */\n      dup2\n        /* \"contracts/libFunc.sol\":1937:1947  month < 12 */\n      lt\n        /* \"contracts/libFunc.sol\":1921:2102  for (month = 0; month < 12; month++) {... */\n      iszero\n      tag_79\n      jumpi\n        /* \"contracts/libFunc.sol\":1989:1998  monthDays */\n      dup2\n        /* \"contracts/libFunc.sol\":1999:2004  month */\n      dup2\n        /* \"contracts/libFunc.sol\":1989:2005  monthDays[month] */\n      0x0c\n      dup2\n      lt\n      tag_81\n      jumpi\n      tag_82\n      tag_45\n      jump\t// in\n    tag_82:\n    tag_81:\n      0x20\n      mul\n      add\n      mload\n        /* \"contracts/libFunc.sol\":1977:1986  totalDays */\n      dup4\n        /* \"contracts/libFunc.sol\":1977:2005  totalDays < monthDays[month] */\n      lt\n        /* \"contracts/libFunc.sol\":2026:2031  break */\n      tag_79\n        /* \"contracts/libFunc.sol\":1973:2047  if (totalDays < monthDays[month]) {... */\n      jumpi\n        /* \"contracts/libFunc.sol\":2074:2083  monthDays */\n      dup2\n        /* \"contracts/libFunc.sol\":2084:2089  month */\n      dup2\n        /* \"contracts/libFunc.sol\":2074:2090  monthDays[month] */\n      0x0c\n      dup2\n      lt\n      tag_84\n      jumpi\n      tag_85\n      tag_45\n      jump\t// in\n    tag_85:\n    tag_84:\n      0x20\n      mul\n      add\n      mload\n        /* \"contracts/libFunc.sol\":2061:2090  totalDays -= monthDays[month] */\n      dup4\n      tag_86\n      swap2\n      swap1\n      tag_49\n      jump\t// in\n    tag_86:\n      swap3\n      pop\n        /* \"contracts/libFunc.sol\":1949:1956  month++ */\n      dup1\n      dup1\n      0x01\n      add\n      swap2\n      pop\n      pop\n        /* \"contracts/libFunc.sol\":1921:2102  for (month = 0; month < 12; month++) {... */\n      jump(tag_78)\n    tag_79:\n        /* \"contracts/libFunc.sol\":2114:2122  uint day */\n      0x00\n        /* \"contracts/libFunc.sol\":2137:2138  1 */\n      0x01\n        /* \"contracts/libFunc.sol\":2125:2134  totalDays */\n      dup5\n        /* \"contracts/libFunc.sol\":2125:2138  totalDays + 1 */\n      tag_87\n      swap2\n      swap1\n      tag_88\n      jump\t// in\n    tag_87:\n        /* \"contracts/libFunc.sol\":2114:2138  uint day = totalDays + 1 */\n      swap1\n      pop\n        /* \"contracts/libFunc.sol\":2230:2251  string memory yearStr */\n      0x00\n        /* \"contracts/libFunc.sol\":2254:2271  intToString(year) */\n      tag_89\n        /* \"contracts/libFunc.sol\":2266:2270  year */\n      dup7\n        /* \"contracts/libFunc.sol\":2254:2265  intToString */\n      tag_38\n        /* \"contracts/libFunc.sol\":2254:2271  intToString(year) */\n      jump\t// in\n    tag_89:\n        /* \"contracts/libFunc.sol\":2230:2271  string memory yearStr = intToString(year) */\n      swap1\n      pop\n        /* \"contracts/libFunc.sol\":2282:2304  string memory monthStr */\n      0x00\n        /* \"contracts/libFunc.sol\":2319:2321  10 */\n      0x0a\n        /* \"contracts/libFunc.sol\":2315:2316  1 */\n      0x01\n        /* \"contracts/libFunc.sol\":2307:2312  month */\n      dup6\n        /* \"contracts/libFunc.sol\":2307:2316  month + 1 */\n      tag_90\n      swap2\n      swap1\n      tag_88\n      jump\t// in\n    tag_90:\n        /* \"contracts/libFunc.sol\":2307:2321  month + 1 < 10 */\n      lt\n        /* \"contracts/libFunc.sol\":2307:2402  month + 1 < 10 ? string(abi.encodePacked(\"0\", intToString(month + 1))) : intToString(month + 1) */\n      tag_91\n      jumpi\n        /* \"contracts/libFunc.sol\":2380:2402  intToString(month + 1) */\n      tag_92\n        /* \"contracts/libFunc.sol\":2400:2401  1 */\n      0x01\n        /* \"contracts/libFunc.sol\":2392:2397  month */\n      dup6\n        /* \"contracts/libFunc.sol\":2392:2401  month + 1 */\n      tag_93\n      swap2\n      swap1\n      tag_88\n      jump\t// in\n    tag_93:\n        /* \"contracts/libFunc.sol\":2380:2391  intToString */\n      tag_38\n        /* \"contracts/libFunc.sol\":2380:2402  intToString(month + 1) */\n      jump\t// in\n    tag_92:\n        /* \"contracts/libFunc.sol\":2307:2402  month + 1 < 10 ? string(abi.encodePacked(\"0\", intToString(month + 1))) : intToString(month + 1) */\n      jump(tag_94)\n    tag_91:\n        /* \"contracts/libFunc.sol\":2353:2375  intToString(month + 1) */\n      tag_95\n        /* \"contracts/libFunc.sol\":2373:2374  1 */\n      0x01\n        /* \"contracts/libFunc.sol\":2365:2370  month */\n      dup6\n        /* \"contracts/libFunc.sol\":2365:2374  month + 1 */\n      tag_96\n      swap2\n      swap1\n      tag_88\n      jump\t// in\n    tag_96:\n        /* \"contracts/libFunc.sol\":2353:2364  intToString */\n      tag_38\n        /* \"contracts/libFunc.sol\":2353:2375  intToString(month + 1) */\n      jump\t// in\n    tag_95:\n        /* \"contracts/libFunc.sol\":2331:2376  abi.encodePacked(\"0\", intToString(month + 1)) */\n      add(0x20, mload(0x40))\n      tag_97\n      swap2\n      swap1\n      tag_98\n      jump\t// in\n    tag_97:\n      mload(0x40)\n      0x20\n      dup2\n      dup4\n      sub\n      sub\n      dup2\n      mstore\n      swap1\n      0x40\n      mstore\n        /* \"contracts/libFunc.sol\":2307:2402  month + 1 < 10 ? string(abi.encodePacked(\"0\", intToString(month + 1))) : intToString(month + 1) */\n    tag_94:\n        /* \"contracts/libFunc.sol\":2282:2402  string memory monthStr = month + 1 < 10 ? string(abi.encodePacked(\"0\", intToString(month + 1))) : intToString(month + 1) */\n      swap1\n      pop\n        /* \"contracts/libFunc.sol\":2413:2433  string memory dayStr */\n      0x00\n        /* \"contracts/libFunc.sol\":2442:2444  10 */\n      0x0a\n        /* \"contracts/libFunc.sol\":2436:2439  day */\n      dup5\n        /* \"contracts/libFunc.sol\":2436:2444  day < 10 */\n      lt\n        /* \"contracts/libFunc.sol\":2436:2513  day < 10 ? string(abi.encodePacked(\"0\", intToString(day))) : intToString(day) */\n      tag_99\n      jumpi\n        /* \"contracts/libFunc.sol\":2497:2513  intToString(day) */\n      tag_100\n        /* \"contracts/libFunc.sol\":2509:2512  day */\n      dup5\n        /* \"contracts/libFunc.sol\":2497:2508  intToString */\n      tag_38\n        /* \"contracts/libFunc.sol\":2497:2513  intToString(day) */\n      jump\t// in\n    tag_100:\n        /* \"contracts/libFunc.sol\":2436:2513  day < 10 ? string(abi.encodePacked(\"0\", intToString(day))) : intToString(day) */\n      jump(tag_101)\n    tag_99:\n        /* \"contracts/libFunc.sol\":2476:2492  intToString(day) */\n      tag_102\n        /* \"contracts/libFunc.sol\":2488:2491  day */\n      dup5\n        /* \"contracts/libFunc.sol\":2476:2487  intToString */\n      tag_38\n        /* \"contracts/libFunc.sol\":2476:2492  intToString(day) */\n      jump\t// in\n    tag_102:\n        /* \"contracts/libFunc.sol\":2454:2493  abi.encodePacked(\"0\", intToString(day)) */\n      add(0x20, mload(0x40))\n      tag_103\n      swap2\n      swap1\n      tag_98\n      jump\t// in\n    tag_103:\n      mload(0x40)\n      0x20\n      dup2\n      dup4\n      sub\n      sub\n      dup2\n      mstore\n      swap1\n      0x40\n      mstore\n        /* \"contracts/libFunc.sol\":2436:2513  day < 10 ? string(abi.encodePacked(\"0\", intToString(day))) : intToString(day) */\n    tag_101:\n        /* \"contracts/libFunc.sol\":2413:2513  string memory dayStr = day < 10 ? string(abi.encodePacked(\"0\", intToString(day))) : intToString(day) */\n      swap1\n      pop\n        /* \"contracts/libFunc.sol\":2557:2564  yearStr */\n      dup3\n        /* \"contracts/libFunc.sol\":2571:2579  monthStr */\n      dup3\n        /* \"contracts/libFunc.sol\":2586:2592  dayStr */\n      dup3\n        /* \"contracts/libFunc.sol\":2540:2593  abi.encodePacked(yearStr, \"-\", monthStr, \"-\", dayStr) */\n      add(0x20, mload(0x40))\n      tag_104\n      swap4\n      swap3\n      swap2\n      swap1\n      tag_105\n      jump\t// in\n    tag_104:\n      mload(0x40)\n      0x20\n      dup2\n      dup4\n      sub\n      sub\n      dup2\n      mstore\n      swap1\n      0x40\n      mstore\n        /* \"contracts/libFunc.sol\":2526:2594  return string(abi.encodePacked(yearStr, \"-\", monthStr, \"-\", dayStr)) */\n      swap9\n      pop\n      pop\n      pop\n      pop\n      pop\n      pop\n      pop\n      pop\n      pop\n        /* \"contracts/libFunc.sol\":1152:2602  function dateToString(uint timestamp) internal pure returns (string memory) {... */\n      swap2\n      swap1\n      pop\n      jump\t// out\n        /* \"contracts/libFunc.sol\":223:734  function intToString(uint val) internal pure returns (string memory) {... */\n    tag_38:\n        /* \"contracts/libFunc.sol\":277:290  string memory */\n      0x60\n        /* \"contracts/libFunc.sol\":314:315  0 */\n      0x00\n        /* \"contracts/libFunc.sol\":307:310  val */\n      dup3\n        /* \"contracts/libFunc.sol\":307:315  val == 0 */\n      sub\n        /* \"contracts/libFunc.sol\":303:354  if (val == 0) {... */\n      tag_107\n      jumpi\n        /* \"contracts/libFunc.sol\":332:342  return \"0\" */\n      mload(0x40)\n      dup1\n      0x40\n      add\n      0x40\n      mstore\n      dup1\n      0x01\n      dup2\n      mstore\n      0x20\n      add\n      0x3000000000000000000000000000000000000000000000000000000000000000\n      dup2\n      mstore\n      pop\n      swap1\n      pop\n      jump(tag_106)\n        /* \"contracts/libFunc.sol\":303:354  if (val == 0) {... */\n    tag_107:\n        /* \"contracts/libFunc.sol\":364:373  uint temp */\n      0x00\n        /* \"contracts/libFunc.sol\":376:379  val */\n      dup3\n        /* \"contracts/libFunc.sol\":364:379  uint temp = val */\n      swap1\n      pop\n        /* \"contracts/libFunc.sol\":390:401  uint digits */\n      0x00\n        /* \"contracts/libFunc.sol\":412:490  while (temp != 0) {... */\n    tag_108:\n        /* \"contracts/libFunc.sol\":427:428  0 */\n      0x00\n        /* \"contracts/libFunc.sol\":419:423  temp */\n      dup3\n        /* \"contracts/libFunc.sol\":419:428  temp != 0 */\n      eq\n        /* \"contracts/libFunc.sol\":412:490  while (temp != 0) {... */\n      tag_109\n      jumpi\n        /* \"contracts/libFunc.sol\":445:453  digits++ */\n      dup1\n      dup1\n      tag_110\n      swap1\n      tag_74\n      jump\t// in\n    tag_110:\n      swap2\n      pop\n      pop\n        /* \"contracts/libFunc.sol\":476:478  10 */\n      0x0a\n        /* \"contracts/libFunc.sol\":468:478  temp /= 10 */\n      dup3\n      tag_111\n      swap2\n      swap1\n      tag_62\n      jump\t// in\n    tag_111:\n      swap2\n      pop\n        /* \"contracts/libFunc.sol\":412:490  while (temp != 0) {... */\n      jump(tag_108)\n    tag_109:\n        /* \"contracts/libFunc.sol\":500:519  bytes memory buffer */\n      0x00\n        /* \"contracts/libFunc.sol\":532:538  digits */\n      dup2\n        /* \"contracts/libFunc.sol\":522:539  new bytes(digits) */\n      0xffffffffffffffff\n      dup2\n      gt\n      iszero\n      tag_112\n      jumpi\n      tag_113\n      tag_114\n      jump\t// in\n    tag_113:\n    tag_112:\n      mload(0x40)\n      swap1\n      dup1\n      dup3\n      mstore\n      dup1\n      0x1f\n      add\n      not(0x1f)\n      and\n      0x20\n      add\n      dup3\n      add\n      0x40\n      mstore\n      dup1\n      iszero\n      tag_115\n      jumpi\n      dup2\n      0x20\n      add\n      0x01\n      dup3\n      mul\n      dup1\n      calldatasize\n      dup4\n      calldatacopy\n      dup1\n      dup3\n      add\n      swap2\n      pop\n      pop\n      swap1\n      pop\n    tag_115:\n      pop\n        /* \"contracts/libFunc.sol\":500:539  bytes memory buffer = new bytes(digits) */\n      swap1\n      pop\n        /* \"contracts/libFunc.sol\":550:695  while (val != 0) {... */\n    tag_116:\n        /* \"contracts/libFunc.sol\":564:565  0 */\n      0x00\n        /* \"contracts/libFunc.sol\":557:560  val */\n      dup6\n        /* \"contracts/libFunc.sol\":557:565  val != 0 */\n      eq\n        /* \"contracts/libFunc.sol\":550:695  while (val != 0) {... */\n      tag_117\n      jumpi\n        /* \"contracts/libFunc.sol\":592:593  1 */\n      0x01\n        /* \"contracts/libFunc.sol\":582:593  digits -= 1 */\n      dup3\n      tag_118\n      swap2\n      swap1\n      tag_49\n      jump\t// in\n    tag_118:\n      swap2\n      pop\n        /* \"contracts/libFunc.sol\":654:656  10 */\n      0x0a\n        /* \"contracts/libFunc.sol\":648:651  val */\n      dup6\n        /* \"contracts/libFunc.sol\":648:656  val % 10 */\n      tag_119\n      swap2\n      swap1\n      tag_120\n      jump\t// in\n    tag_119:\n        /* \"contracts/libFunc.sol\":638:640  48 */\n      0x30\n        /* \"contracts/libFunc.sol\":638:657  48 + uint(val % 10) */\n      tag_121\n      swap2\n      swap1\n      tag_88\n      jump\t// in\n    tag_121:\n        /* \"contracts/libFunc.sol\":625:659  bytes1(uint8(48 + uint(val % 10))) */\n      0xf8\n      shl\n        /* \"contracts/libFunc.sol\":608:614  buffer */\n      dup2\n        /* \"contracts/libFunc.sol\":615:621  digits */\n      dup4\n        /* \"contracts/libFunc.sol\":608:622  buffer[digits] */\n      dup2\n      mload\n      dup2\n      lt\n      tag_122\n      jumpi\n      tag_123\n      tag_45\n      jump\t// in\n    tag_123:\n    tag_122:\n      0x20\n      add\n      add\n        /* \"contracts/libFunc.sol\":608:659  buffer[digits] = bytes1(uint8(48 + uint(val % 10))) */\n      swap1\n      not(0xffffffffffffffffffffffffffffffffffffffffffffffffffffffffffffff)\n      and\n      swap1\n      dup2\n      0x00\n      byte\n      swap1\n      mstore8\n      pop\n        /* \"contracts/libFunc.sol\":681:683  10 */\n      0x0a\n        /* \"contracts/libFunc.sol\":674:683  val /= 10 */\n      dup6\n      tag_124\n      swap2\n      swap1\n      tag_62\n      jump\t// in\n    tag_124:\n      swap5\n      pop\n        /* \"contracts/libFunc.sol\":550:695  while (val != 0) {... */\n      jump(tag_116)\n    tag_117:\n        /* \"contracts/libFunc.sol\":719:725  buffer */\n      dup1\n        /* \"contracts/libFunc.sol\":705:726  return string(buffer) */\n      swap4\n      pop\n      pop\n      pop\n      pop\n        /* \"contracts/libFunc.sol\":223:734  function intToString(uint val) internal pure returns (string memory) {... */\n    tag_106:\n      swap2\n      swap1\n      pop\n      jump\t// out\n        /* \"contracts/libFunc.sol\":2656:2797  function isLeapYear(uint year) internal pure returns (bool) {... */\n    tag_66:\n        /* \"contracts/libFunc.sol\":2710:2714  bool */\n      0x00\n        /* \"contracts/libFunc.sol\":2747:2748  0 */\n      dup1\n        /* \"contracts/libFunc.sol\":2742:2743  4 */\n      0x04\n        /* \"contracts/libFunc.sol\":2735:2739  year */\n      dup4\n        /* \"contracts/libFunc.sol\":2735:2743  year % 4 */\n      tag_126\n      swap2\n      swap1\n      tag_120\n      jump\t// in\n    tag_126:\n        /* \"contracts/libFunc.sol\":2735:2748  year % 4 == 0 */\n      eq\n        /* \"contracts/libFunc.sol\":2735:2767  year % 4 == 0 && year % 100 != 0 */\n      dup1\n      iszero\n      tag_127\n      jumpi\n      pop\n        /* \"contracts/libFunc.sol\":2766:2767  0 */\n      0x00\n        /* \"contracts/libFunc.sol\":2759:2762  100 */\n      0x64\n        /* \"contracts/libFunc.sol\":2752:2756  year */\n      dup4\n        /* \"contracts/libFunc.sol\":2752:2762  year % 100 */\n      tag_128\n      swap2\n      swap1\n      tag_120\n      jump\t// in\n    tag_128:\n        /* \"contracts/libFunc.sol\":2752:2767  year % 100 != 0 */\n      eq\n      iszero\n        /* \"contracts/libFunc.sol\":2735:2767  year % 4 == 0 && year % 100 != 0 */\n    tag_127:\n        /* \"contracts/libFunc.sol\":2734:2789  (year % 4 == 0 && year % 100 != 0) || (year % 400 == 0) */\n      dup1\n      tag_129\n      jumpi\n      pop\n        /* \"contracts/libFunc.sol\":2787:2788  0 */\n      0x00\n        /* \"contracts/libFunc.sol\":2780:2783  400 */\n      0x0190\n        /* \"contracts/libFunc.sol\":2773:2777  year */\n      dup4\n        /* \"contracts/libFunc.sol\":2773:2783  year % 400 */\n      tag_130\n      swap2\n      swap1\n      tag_120\n      jump\t// in\n    tag_130:\n        /* \"contracts/libFunc.sol\":2773:2788  year % 400 == 0 */\n      eq\n        /* \"contracts/libFunc.sol\":2734:2789  (year % 4 == 0 && year % 100 != 0) || (year % 400 == 0) */\n    tag_129:\n        /* \"contracts/libFunc.sol\":2727:2789  return (year % 4 == 0 && year % 100 != 0) || (year % 400 == 0) */\n      swap1\n      pop\n        /* \"contracts/libFunc.sol\":2656:2797  function isLeapYear(uint year) internal pure returns (bool) {... */\n      swap2\n      swap1\n      pop\n      jump\t// out\n        /* \"#utility.yul\":7:121   */\n    tag_131:\n        /* \"#utility.yul\":74:80   */\n      0x00\n        /* \"#utility.yul\":108:113   */\n      dup2\n        /* \"#utility.yul\":102:114   */\n      mload\n        /* \"#utility.yul\":92:114   */\n      swap1\n      pop\n        /* \"#utility.yul\":7:121   */\n      swap2\n      swap1\n      pop\n      jump\t// out\n        /* \"#utility.yul\":127:311   */\n    tag_132:\n        /* \"#utility.yul\":226:237   */\n      0x00\n        /* \"#utility.yul\":260:266   */\n      dup3\n        /* \"#utility.yul\":255:258   */\n      dup3\n        /* \"#utility.yul\":248:267   */\n      mstore\n        /* \"#utility.yul\":300:304   */\n      0x20\n        /* \"#utility.yul\":295:298   */\n      dup3\n        /* \"#utility.yul\":291:305   */\n      add\n        /* \"#utility.yul\":276:305   */\n      swap1\n      pop\n        /* \"#utility.yul\":127:311   */\n      swap3\n      swap2\n      pop\n      pop\n      jump\t// out\n        /* \"#utility.yul\":317:449   */\n    tag_133:\n        /* \"#utility.yul\":384:388   */\n      0x00\n        /* \"#utility.yul\":407:410   */\n      dup2\n        /* \"#utility.yul\":399:410   */\n      swap1\n      pop\n        /* \"#utility.yul\":437:441   */\n      0x20\n        /* \"#utility.yul\":432:435   */\n      dup3\n        /* \"#utility.yul\":428:442   */\n      add\n        /* \"#utility.yul\":420:442   */\n      swap1\n      pop\n        /* \"#utility.yul\":317:449   */\n      swap2\n      swap1\n      pop\n      jump\t// out\n        /* \"#utility.yul\":455:581   */\n    tag_134:\n        /* \"#utility.yul\":492:499   */\n      0x00\n        /* \"#utility.yul\":532:574   */\n      0xffffffffffffffffffffffffffffffffffffffff\n        /* \"#utility.yul\":525:530   */\n      dup3\n        /* \"#utility.yul\":521:575   */\n      and\n        /* \"#utility.yul\":510:575   */\n      swap1\n      pop\n        /* \"#utility.yul\":455:581   */\n      swap2\n      swap1\n      pop\n      jump\t// out\n        /* \"#utility.yul\":587:683   */\n    tag_135:\n        /* \"#utility.yul\":624:631   */\n      0x00\n        /* \"#utility.yul\":653:677   */\n      tag_169\n        /* \"#utility.yul\":671:676   */\n      dup3\n        /* \"#utility.yul\":653:677   */\n      tag_134\n      jump\t// in\n    tag_169:\n        /* \"#utility.yul\":642:677   */\n      swap1\n      pop\n        /* \"#utility.yul\":587:683   */\n      swap2\n      swap1\n      pop\n      jump\t// out\n        /* \"#utility.yul\":689:797   */\n    tag_136:\n        /* \"#utility.yul\":766:790   */\n      tag_171\n        /* \"#utility.yul\":784:789   */\n      dup2\n        /* \"#utility.yul\":766:790   */\n      tag_135\n      jump\t// in\n    tag_171:\n        /* \"#utility.yul\":761:764   */\n      dup3\n        /* \"#utility.yul\":754:791   */\n      mstore\n        /* \"#utility.yul\":689:797   */\n      pop\n      pop\n      jump\t// out\n        /* \"#utility.yul\":803:982   */\n    tag_137:\n        /* \"#utility.yul\":872:882   */\n      0x00\n        /* \"#utility.yul\":893:939   */\n      tag_173\n        /* \"#utility.yul\":935:938   */\n      dup4\n        /* \"#utility.yul\":927:933   */\n      dup4\n        /* \"#utility.yul\":893:939   */\n      tag_136\n      jump\t// in\n    tag_173:\n        /* \"#utility.yul\":971:975   */\n      0x20\n        /* \"#utility.yul\":966:969   */\n      dup4\n        /* \"#utility.yul\":962:976   */\n      add\n        /* \"#utility.yul\":948:976   */\n      swap1\n      pop\n        /* \"#utility.yul\":803:982   */\n      swap3\n      swap2\n      pop\n      pop\n      jump\t// out\n        /* \"#utility.yul\":988:1101   */\n    tag_138:\n        /* \"#utility.yul\":1058:1062   */\n      0x00\n        /* \"#utility.yul\":1090:1094   */\n      0x20\n        /* \"#utility.yul\":1085:1088   */\n      dup3\n        /* \"#utility.yul\":1081:1095   */\n      add\n        /* \"#utility.yul\":1073:1095   */\n      swap1\n      pop\n        /* \"#utility.yul\":988:1101   */\n      swap2\n      swap1\n      pop\n      jump\t// out\n        /* \"#utility.yul\":1137:1869   */\n    tag_139:\n        /* \"#utility.yul\":1256:1259   */\n      0x00\n        /* \"#utility.yul\":1285:1339   */\n      tag_176\n        /* \"#utility.yul\":1333:1338   */\n      dup3\n        /* \"#utility.yul\":1285:1339   */\n      tag_131\n      jump\t// in\n    tag_176:\n        /* \"#utility.yul\":1355:1441   */\n      tag_177\n        /* \"#utility.yul\":1434:1440   */\n      dup2\n        /* \"#utility.yul\":1429:1432   */\n      dup6\n        /* \"#utility.yul\":1355:1441   */\n      tag_132\n      jump\t// in\n    tag_177:\n        /* \"#utility.yul\":1348:1441   */\n      swap4\n      pop\n        /* \"#utility.yul\":1465:1521   */\n      tag_178\n        /* \"#utility.yul\":1515:1520   */\n      dup4\n        /* \"#utility.yul\":1465:1521   */\n      tag_133\n      jump\t// in\n    tag_178:\n        /* \"#utility.yul\":1544:1551   */\n      dup1\n        /* \"#utility.yul\":1575:1576   */\n      0x00\n        /* \"#utility.yul\":1560:1844   */\n    tag_179:\n        /* \"#utility.yul\":1585:1591   */\n      dup4\n        /* \"#utility.yul\":1582:1583   */\n      dup2\n        /* \"#utility.yul\":1579:1592   */\n      lt\n        /* \"#utility.yul\":1560:1844   */\n      iszero\n      tag_181\n      jumpi\n        /* \"#utility.yul\":1661:1667   */\n      dup2\n        /* \"#utility.yul\":1655:1668   */\n      mload\n        /* \"#utility.yul\":1688:1751   */\n      tag_182\n        /* \"#utility.yul\":1747:1750   */\n      dup9\n        /* \"#utility.yul\":1732:1745   */\n      dup3\n        /* \"#utility.yul\":1688:1751   */\n      tag_137\n      jump\t// in\n    tag_182:\n        /* \"#utility.yul\":1681:1751   */\n      swap8\n      pop\n        /* \"#utility.yul\":1774:1834   */\n      tag_183\n        /* \"#utility.yul\":1827:1833   */\n      dup4\n        /* \"#utility.yul\":1774:1834   */\n      tag_138\n      jump\t// in\n    tag_183:\n        /* \"#utility.yul\":1764:1834   */\n      swap3\n      pop\n        /* \"#utility.yul\":1620:1844   */\n      pop\n        /* \"#utility.yul\":1607:1608   */\n      0x01\n        /* \"#utility.yul\":1604:1605   */\n      dup2\n        /* \"#utility.yul\":1600:1609   */\n      add\n        /* \"#utility.yul\":1595:1609   */\n      swap1\n      pop\n        /* \"#utility.yul\":1560:1844   */\n      jump(tag_179)\n    tag_181:\n        /* \"#utility.yul\":1564:1578   */\n      pop\n        /* \"#utility.yul\":1860:1863   */\n      dup6\n        /* \"#utility.yul\":1853:1863   */\n      swap4\n      pop\n        /* \"#utility.yul\":1261:1869   */\n      pop\n      pop\n      pop\n        /* \"#utility.yul\":1137:1869   */\n      swap3\n      swap2\n      pop\n      pop\n      jump\t// out\n        /* \"#utility.yul\":1875:2248   */\n    tag_10:\n        /* \"#utility.yul\":2018:2022   */\n      0x00\n        /* \"#utility.yul\":2056:2058   */\n      0x20\n        /* \"#utility.yul\":2045:2054   */\n      dup3\n        /* \"#utility.yul\":2041:2059   */\n      add\n        /* \"#utility.yul\":2033:2059   */\n      swap1\n      pop\n        /* \"#utility.yul\":2105:2114   */\n      dup2\n        /* \"#utility.yul\":2099:2103   */\n      dup2\n        /* \"#utility.yul\":2095:2115   */\n      sub\n        /* \"#utility.yul\":2091:2092   */\n      0x00\n        /* \"#utility.yul\":2080:2089   */\n      dup4\n        /* \"#utility.yul\":2076:2093   */\n      add\n        /* \"#utility.yul\":2069:2116   */\n      mstore\n        /* \"#utility.yul\":2133:2241   */\n      tag_185\n        /* \"#utility.yul\":2236:2240   */\n      dup2\n        /* \"#utility.yul\":2227:2233   */\n      dup5\n        /* \"#utility.yul\":2133:2241   */\n      tag_139\n      jump\t// in\n    tag_185:\n        /* \"#utility.yul\":2125:2241   */\n      swap1\n      pop\n        /* \"#utility.yul\":1875:2248   */\n      swap3\n      swap2\n      pop\n      pop\n      jump\t// out\n        /* \"#utility.yul\":2254:2353   */\n    tag_140:\n        /* \"#utility.yul\":2306:2312   */\n      0x00\n        /* \"#utility.yul\":2340:2345   */\n      dup2\n        /* \"#utility.yul\":2334:2346   */\n      mload\n        /* \"#utility.yul\":2324:2346   */\n      swap1\n      pop\n        /* \"#utility.yul\":2254:2353   */\n      swap2\n      swap1\n      pop\n      jump\t// out\n        /* \"#utility.yul\":2359:2528   */\n    tag_141:\n        /* \"#utility.yul\":2443:2454   */\n      0x00\n        /* \"#utility.yul\":2477:2483   */\n      dup3\n        /* \"#utility.yul\":2472:2475   */\n      dup3\n        /* \"#utility.yul\":2465:2484   */\n      mstore\n        /* \"#utility.yul\":2517:2521   */\n      0x20\n        /* \"#utility.yul\":2512:2515   */\n      dup3\n        /* \"#utility.yul\":2508:2522   */\n      add\n        /* \"#utility.yul\":2493:2522   */\n      swap1\n      pop\n        /* \"#utility.yul\":2359:2528   */\n      swap3\n      swap2\n      pop\n      pop\n      jump\t// out\n        /* \"#utility.yul\":2534:2673   */\n    tag_142:\n        /* \"#utility.yul\":2623:2629   */\n      dup3\n        /* \"#utility.yul\":2618:2621   */\n      dup2\n        /* \"#utility.yul\":2613:2616   */\n      dup4\n        /* \"#utility.yul\":2607:2630   */\n      mcopy\n        /* \"#utility.yul\":2664:2665   */\n      0x00\n        /* \"#utility.yul\":2655:2661   */\n      dup4\n        /* \"#utility.yul\":2650:2653   */\n      dup4\n        /* \"#utility.yul\":2646:2662   */\n      add\n        /* \"#utility.yul\":2639:2666   */\n      mstore\n        /* \"#utility.yul\":2534:2673   */\n      pop\n      pop\n      pop\n      jump\t// out\n        /* \"#utility.yul\":2679:2781   */\n    tag_143:\n        /* \"#utility.yul\":2720:2726   */\n      0x00\n        /* \"#utility.yul\":2771:2773   */\n      0x1f\n        /* \"#utility.yul\":2767:2774   */\n      not\n        /* \"#utility.yul\":2762:2764   */\n      0x1f\n        /* \"#utility.yul\":2755:2760   */\n      dup4\n        /* \"#utility.yul\":2751:2765   */\n      add\n        /* \"#utility.yul\":2747:2775   */\n      and\n        /* \"#utility.yul\":2737:2775   */\n      swap1\n      pop\n        /* \"#utility.yul\":2679:2781   */\n      swap2\n      swap1\n      pop\n      jump\t// out\n        /* \"#utility.yul\":2787:3164   */\n    tag_144:\n        /* \"#utility.yul\":2875:2878   */\n      0x00\n        /* \"#utility.yul\":2903:2942   */\n      tag_191\n        /* \"#utility.yul\":2936:2941   */\n      dup3\n        /* \"#utility.yul\":2903:2942   */\n      tag_140\n      jump\t// in\n    tag_191:\n        /* \"#utility.yul\":2958:3029   */\n      tag_192\n        /* \"#utility.yul\":3022:3028   */\n      dup2\n        /* \"#utility.yul\":3017:3020   */\n      dup6\n        /* \"#utility.yul\":2958:3029   */\n      tag_141\n      jump\t// in\n    tag_192:\n        /* \"#utility.yul\":2951:3029   */\n      swap4\n      pop\n        /* \"#utility.yul\":3038:3103   */\n      tag_193\n        /* \"#utility.yul\":3096:3102   */\n      dup2\n        /* \"#utility.yul\":3091:3094   */\n      dup6\n        /* \"#utility.yul\":3084:3088   */\n      0x20\n        /* \"#utility.yul\":3077:3082   */\n      dup7\n        /* \"#utility.yul\":3073:3089   */\n      add\n        /* \"#utility.yul\":3038:3103   */\n      tag_142\n      jump\t// in\n    tag_193:\n        /* \"#utility.yul\":3128:3157   */\n      tag_194\n        /* \"#utility.yul\":3150:3156   */\n      dup2\n        /* \"#utility.yul\":3128:3157   */\n      tag_143\n      jump\t// in\n    tag_194:\n        /* \"#utility.yul\":3123:3126   */\n      dup5\n        /* \"#utility.yul\":3119:3158   */\n      add\n        /* \"#utility.yul\":3112:3158   */\n      swap2\n      pop\n        /* \"#utility.yul\":2879:3164   */\n      pop\n        /* \"#utility.yul\":2787:3164   */\n      swap3\n      swap2\n      pop\n      pop\n      jump\t// out\n        /* \"#utility.yul\":3170:3483   */\n    tag_14:\n        /* \"#utility.yul\":3283:3287   */\n      0x00\n        /* \"#utility.yul\":3321:3323   */\n      0x20\n        /* \"#utility.yul\":3310:3319   */\n      dup3\n        /* \"#utility.yul\":3306:3324   */\n      add\n        /* \"#utility.yul\":3298:3324   */\n      swap1\n      pop\n        /* \"#utility.yul\":3370:3379   */\n      dup2\n        /* \"#utility.yul\":3364:3368   */\n      dup2\n        /* \"#utility.yul\":3360:3380   */\n      sub\n        /* \"#utility.yul\":3356:3357   */\n      0x00\n        /* \"#utility.yul\":3345:3354   */\n      dup4\n        /* \"#utility.yul\":3341:3358   */\n      add\n        /* \"#utility.yul\":3334:3381   */\n      mstore\n        /* \"#utility.yul\":3398:3476   */\n      tag_196\n        /* \"#utility.yul\":3471:3475   */\n      dup2\n        /* \"#utility.yul\":3462:3468   */\n      dup5\n        /* \"#utility.yul\":3398:3476   */\n      tag_144\n      jump\t// in\n    tag_196:\n        /* \"#utility.yul\":3390:3476   */\n      swap1\n      pop\n        /* \"#utility.yul\":3170:3483   */\n      swap3\n      swap2\n      pop\n      pop\n      jump\t// out\n        /* \"#utility.yul\":3570:3687   */\n    tag_146:\n        /* \"#utility.yul\":3679:3680   */\n      0x00\n        /* \"#utility.yul\":3676:3677   */\n      dup1\n        /* \"#utility.yul\":3669:3681   */\n      revert\n        /* \"#utility.yul\":3816:3893   */\n    tag_148:\n        /* \"#utility.yul\":3853:3860   */\n      0x00\n        /* \"#utility.yul\":3882:3887   */\n      dup2\n        /* \"#utility.yul\":3871:3887   */\n      swap1\n      pop\n        /* \"#utility.yul\":3816:3893   */\n      swap2\n      swap1\n      pop\n      jump\t// out\n        /* \"#utility.yul\":3899:4021   */\n    tag_149:\n        /* \"#utility.yul\":3972:3996   */\n      tag_202\n        /* \"#utility.yul\":3990:3995   */\n      dup2\n        /* \"#utility.yul\":3972:3996   */\n      tag_148\n      jump\t// in\n    tag_202:\n        /* \"#utility.yul\":3965:3970   */\n      dup2\n        /* \"#utility.yul\":3962:3997   */\n      eq\n        /* \"#utility.yul\":3952:4015   */\n      tag_203\n      jumpi\n        /* \"#utility.yul\":4011:4012   */\n      0x00\n        /* \"#utility.yul\":4008:4009   */\n      dup1\n        /* \"#utility.yul\":4001:4013   */\n      revert\n        /* \"#utility.yul\":3952:4015   */\n    tag_203:\n        /* \"#utility.yul\":3899:4021   */\n      pop\n      jump\t// out\n        /* \"#utility.yul\":4027:4166   */\n    tag_150:\n        /* \"#utility.yul\":4073:4078   */\n      0x00\n        /* \"#utility.yul\":4111:4117   */\n      dup2\n        /* \"#utility.yul\":4098:4118   */\n      calldataload\n        /* \"#utility.yul\":4089:4118   */\n      swap1\n      pop\n        /* \"#utility.yul\":4127:4160   */\n      tag_205\n        /* \"#utility.yul\":4154:4159   */\n      dup2\n        /* \"#utility.yul\":4127:4160   */\n      tag_149\n      jump\t// in\n    tag_205:\n        /* \"#utility.yul\":4027:4166   */\n      swap3\n      swap2\n      pop\n      pop\n      jump\t// out\n        /* \"#utility.yul\":4172:4501   */\n    tag_17:\n        /* \"#utility.yul\":4231:4237   */\n      0x00\n        /* \"#utility.yul\":4280:4282   */\n      0x20\n        /* \"#utility.yul\":4268:4277   */\n      dup3\n        /* \"#utility.yul\":4259:4266   */\n      dup5\n        /* \"#utility.yul\":4255:4278   */\n      sub\n        /* \"#utility.yul\":4251:4283   */\n      slt\n        /* \"#utility.yul\":4248:4367   */\n      iszero\n      tag_207\n      jumpi\n        /* \"#utility.yul\":4286:4365   */\n      tag_208\n      tag_146\n      jump\t// in\n    tag_208:\n        /* \"#utility.yul\":4248:4367   */\n    tag_207:\n        /* \"#utility.yul\":4406:4407   */\n      0x00\n        /* \"#utility.yul\":4431:4484   */\n      tag_209\n        /* \"#utility.yul\":4476:4483   */\n      dup5\n        /* \"#utility.yul\":4467:4473   */\n      dup3\n        /* \"#utility.yul\":4456:4465   */\n      dup6\n        /* \"#utility.yul\":4452:4474   */\n      add\n        /* \"#utility.yul\":4431:4484   */\n      tag_150\n      jump\t// in\n    tag_209:\n        /* \"#utility.yul\":4421:4484   */\n      swap2\n      pop\n        /* \"#utility.yul\":4377:4494   */\n      pop\n        /* \"#utility.yul\":4172:4501   */\n      swap3\n      swap2\n      pop\n      pop\n      jump\t// out\n        /* \"#utility.yul\":4507:4629   */\n    tag_151:\n        /* \"#utility.yul\":4580:4604   */\n      tag_211\n        /* \"#utility.yul\":4598:4603   */\n      dup2\n        /* \"#utility.yul\":4580:4604   */\n      tag_135\n      jump\t// in\n    tag_211:\n        /* \"#utility.yul\":4573:4578   */\n      dup2\n        /* \"#utility.yul\":4570:4605   */\n      eq\n        /* \"#utility.yul\":4560:4623   */\n      tag_212\n      jumpi\n        /* \"#utility.yul\":4619:4620   */\n      0x00\n        /* \"#utility.yul\":4616:4617   */\n      dup1\n        /* \"#utility.yul\":4609:4621   */\n      revert\n        /* \"#utility.yul\":4560:4623   */\n    tag_212:\n        /* \"#utility.yul\":4507:4629   */\n      pop\n      jump\t// out\n        /* \"#utility.yul\":4635:4774   */\n    tag_152:\n        /* \"#utility.yul\":4681:4686   */\n      0x00\n        /* \"#utility.yul\":4719:4725   */\n      dup2\n        /* \"#utility.yul\":4706:4726   */\n      calldataload\n        /* \"#utility.yul\":4697:4726   */\n      swap1\n      pop\n        /* \"#utility.yul\":4735:4768   */\n      tag_214\n        /* \"#utility.yul\":4762:4767   */\n      dup2\n        /* \"#utility.yul\":4735:4768   */\n      tag_151\n      jump\t// in\n    tag_214:\n        /* \"#utility.yul\":4635:4774   */\n      swap3\n      swap2\n      pop\n      pop\n      jump\t// out\n        /* \"#utility.yul\":4780:5109   */\n    tag_22:\n        /* \"#utility.yul\":4839:4845   */\n      0x00\n        /* \"#utility.yul\":4888:4890   */\n      0x20\n        /* \"#utility.yul\":4876:4885   */\n      dup3\n        /* \"#utility.yul\":4867:4874   */\n      dup5\n        /* \"#utility.yul\":4863:4886   */\n      sub\n        /* \"#utility.yul\":4859:4891   */\n      slt\n        /* \"#utility.yul\":4856:4975   */\n      iszero\n      tag_216\n      jumpi\n        /* \"#utility.yul\":4894:4973   */\n      tag_217\n      tag_146\n      jump\t// in\n    tag_217:\n        /* \"#utility.yul\":4856:4975   */\n    tag_216:\n        /* \"#utility.yul\":5014:5015   */\n      0x00\n        /* \"#utility.yul\":5039:5092   */\n      tag_218\n        /* \"#utility.yul\":5084:5091   */\n      dup5\n        /* \"#utility.yul\":5075:5081   */\n      dup3\n        /* \"#utility.yul\":5064:5073   */\n      dup6\n        /* \"#utility.yul\":5060:5082   */\n      add\n        /* \"#utility.yul\":5039:5092   */\n      tag_152\n      jump\t// in\n    tag_218:\n        /* \"#utility.yul\":5029:5092   */\n      swap2\n      pop\n        /* \"#utility.yul\":4985:5102   */\n      pop\n        /* \"#utility.yul\":4780:5109   */\n      swap3\n      swap2\n      pop\n      pop\n      jump\t// out\n        /* \"#utility.yul\":5115:5278   */\n    tag_153:\n        /* \"#utility.yul\":5255:5270   */\n      0x7072696365206973207a65726f00000000000000000000000000000000000000\n        /* \"#utility.yul\":5251:5252   */\n      0x00\n        /* \"#utility.yul\":5243:5249   */\n      dup3\n        /* \"#utility.yul\":5239:5253   */\n      add\n        /* \"#utility.yul\":5232:5271   */\n      mstore\n        /* \"#utility.yul\":5115:5278   */\n      pop\n      jump\t// out\n        /* \"#utility.yul\":5284:5650   */\n    tag_154:\n        /* \"#utility.yul\":5426:5429   */\n      0x00\n        /* \"#utility.yul\":5447:5514   */\n      tag_221\n        /* \"#utility.yul\":5511:5513   */\n      0x0d\n        /* \"#utility.yul\":5506:5509   */\n      dup4\n        /* \"#utility.yul\":5447:5514   */\n      tag_141\n      jump\t// in\n    tag_221:\n        /* \"#utility.yul\":5440:5514   */\n      swap2\n      pop\n        /* \"#utility.yul\":5523:5616   */\n      tag_222\n        /* \"#utility.yul\":5612:5615   */\n      dup3\n        /* \"#utility.yul\":5523:5616   */\n      tag_153\n      jump\t// in\n    tag_222:\n        /* \"#utility.yul\":5641:5643   */\n      0x20\n        /* \"#utility.yul\":5636:5639   */\n      dup3\n        /* \"#utility.yul\":5632:5644   */\n      add\n        /* \"#utility.yul\":5625:5644   */\n      swap1\n      pop\n        /* \"#utility.yul\":5284:5650   */\n      swap2\n      swap1\n      pop\n      jump\t// out\n        /* \"#utility.yul\":5656:6075   */\n    tag_34:\n        /* \"#utility.yul\":5822:5826   */\n      0x00\n        /* \"#utility.yul\":5860:5862   */\n      0x20\n        /* \"#utility.yul\":5849:5858   */\n      dup3\n        /* \"#utility.yul\":5845:5863   */\n      add\n        /* \"#utility.yul\":5837:5863   */\n      swap1\n      pop\n        /* \"#utility.yul\":5909:5918   */\n      dup2\n        /* \"#utility.yul\":5903:5907   */\n      dup2\n        /* \"#utility.yul\":5899:5919   */\n      sub\n        /* \"#utility.yul\":5895:5896   */\n      0x00\n        /* \"#utility.yul\":5884:5893   */\n      dup4\n        /* \"#utility.yul\":5880:5897   */\n      add\n        /* \"#utility.yul\":5873:5920   */\n      mstore\n        /* \"#utility.yul\":5937:6068   */\n      tag_224\n        /* \"#utility.yul\":6063:6067   */\n      dup2\n        /* \"#utility.yul\":5937:6068   */\n      tag_154\n      jump\t// in\n    tag_224:\n        /* \"#utility.yul\":5929:6068   */\n      swap1\n      pop\n        /* \"#utility.yul\":5656:6075   */\n      swap2\n      swap1\n      pop\n      jump\t// out\n        /* \"#utility.yul\":6081:6261   */\n    tag_45:\n        /* \"#utility.yul\":6129:6206   */\n      0x4e487b7100000000000000000000000000000000000000000000000000000000\n        /* \"#utility.yul\":6126:6127   */\n      0x00\n        /* \"#utility.yul\":6119:6207   */\n      mstore\n        /* \"#utility.yul\":6226:6230   */\n      0x32\n        /* \"#utility.yul\":6223:6224   */\n      0x04\n        /* \"#utility.yul\":6216:6231   */\n      mstore\n        /* \"#utility.yul\":6250:6254   */\n      0x24\n        /* \"#utility.yul\":6247:6248   */\n      0x00\n        /* \"#utility.yul\":6240:6255   */\n      revert\n        /* \"#utility.yul\":6267:6447   */\n    tag_155:\n        /* \"#utility.yul\":6315:6392   */\n      0x4e487b7100000000000000000000000000000000000000000000000000000000\n        /* \"#utility.yul\":6312:6313   */\n      0x00\n        /* \"#utility.yul\":6305:6393   */\n      mstore\n        /* \"#utility.yul\":6412:6416   */\n      0x11\n        /* \"#utility.yul\":6409:6410   */\n      0x04\n        /* \"#utility.yul\":6402:6417   */\n      mstore\n        /* \"#utility.yul\":6436:6440   */\n      0x24\n        /* \"#utility.yul\":6433:6434   */\n      0x00\n        /* \"#utility.yul\":6426:6441   */\n      revert\n        /* \"#utility.yul\":6453:6647   */\n    tag_49:\n        /* \"#utility.yul\":6493:6497   */\n      0x00\n        /* \"#utility.yul\":6513:6533   */\n      tag_228\n        /* \"#utility.yul\":6531:6532   */\n      dup3\n        /* \"#utility.yul\":6513:6533   */\n      tag_148\n      jump\t// in\n    tag_228:\n        /* \"#utility.yul\":6508:6533   */\n      swap2\n      pop\n        /* \"#utility.yul\":6547:6567   */\n      tag_229\n        /* \"#utility.yul\":6565:6566   */\n      dup4\n        /* \"#utility.yul\":6547:6567   */\n      tag_148\n      jump\t// in\n    tag_229:\n        /* \"#utility.yul\":6542:6567   */\n      swap3\n      pop\n        /* \"#utility.yul\":6591:6592   */\n      dup3\n        /* \"#utility.yul\":6588:6589   */\n      dup3\n        /* \"#utility.yul\":6584:6593   */\n      sub\n        /* \"#utility.yul\":6576:6593   */\n      swap1\n      pop\n        /* \"#utility.yul\":6615:6616   */\n      dup2\n        /* \"#utility.yul\":6609:6613   */\n      dup2\n        /* \"#utility.yul\":6606:6617   */\n      gt\n        /* \"#utility.yul\":6603:6640   */\n      iszero\n      tag_230\n      jumpi\n        /* \"#utility.yul\":6620:6638   */\n      tag_231\n      tag_155\n      jump\t// in\n    tag_231:\n        /* \"#utility.yul\":6603:6640   */\n    tag_230:\n        /* \"#utility.yul\":6453:6647   */\n      swap3\n      swap2\n      pop\n      pop\n      jump\t// out\n        /* \"#utility.yul\":6653:6833   */\n    tag_58:\n        /* \"#utility.yul\":6701:6778   */\n      0x4e487b7100000000000000000000000000000000000000000000000000000000\n        /* \"#utility.yul\":6698:6699   */\n      0x00\n        /* \"#utility.yul\":6691:6779   */\n      mstore\n        /* \"#utility.yul\":6798:6802   */\n      0x31\n        /* \"#utility.yul\":6795:6796   */\n      0x04\n        /* \"#utility.yul\":6788:6803   */\n      mstore\n        /* \"#utility.yul\":6822:6826   */\n      0x24\n        /* \"#utility.yul\":6819:6820   */\n      0x00\n        /* \"#utility.yul\":6812:6827   */\n      revert\n        /* \"#utility.yul\":6839:7019   */\n    tag_156:\n        /* \"#utility.yul\":6887:6964   */\n      0x4e487b7100000000000000000000000000000000000000000000000000000000\n        /* \"#utility.yul\":6884:6885   */\n      0x00\n        /* \"#utility.yul\":6877:6965   */\n      mstore\n        /* \"#utility.yul\":6984:6988   */\n      0x12\n        /* \"#utility.yul\":6981:6982   */\n      0x04\n        /* \"#utility.yul\":6974:6989   */\n      mstore\n        /* \"#utility.yul\":7008:7012   */\n      0x24\n        /* \"#utility.yul\":7005:7006   */\n      0x00\n        /* \"#utility.yul\":6998:7013   */\n      revert\n        /* \"#utility.yul\":7025:7210   */\n    tag_62:\n        /* \"#utility.yul\":7065:7066   */\n      0x00\n        /* \"#utility.yul\":7082:7102   */\n      tag_235\n        /* \"#utility.yul\":7100:7101   */\n      dup3\n        /* \"#utility.yul\":7082:7102   */\n      tag_148\n      jump\t// in\n    tag_235:\n        /* \"#utility.yul\":7077:7102   */\n      swap2\n      pop\n        /* \"#utility.yul\":7116:7136   */\n      tag_236\n        /* \"#utility.yul\":7134:7135   */\n      dup4\n        /* \"#utility.yul\":7116:7136   */\n      tag_148\n      jump\t// in\n    tag_236:\n        /* \"#utility.yul\":7111:7136   */\n      swap3\n      pop\n        /* \"#utility.yul\":7155:7156   */\n      dup3\n        /* \"#utility.yul\":7145:7180   */\n      tag_237\n      jumpi\n        /* \"#utility.yul\":7160:7178   */\n      tag_238\n      tag_156\n      jump\t// in\n    tag_238:\n        /* \"#utility.yul\":7145:7180   */\n    tag_237:\n        /* \"#utility.yul\":7202:7203   */\n      dup3\n        /* \"#utility.yul\":7199:7200   */\n      dup3\n        /* \"#utility.yul\":7195:7204   */\n      div\n        /* \"#utility.yul\":7190:7204   */\n      swap1\n      pop\n        /* \"#utility.yul\":7025:7210   */\n      swap3\n      swap2\n      pop\n      pop\n      jump\t// out\n        /* \"#utility.yul\":7216:7449   */\n    tag_74:\n        /* \"#utility.yul\":7255:7258   */\n      0x00\n        /* \"#utility.yul\":7278:7302   */\n      tag_240\n        /* \"#utility.yul\":7296:7301   */\n      dup3\n        /* \"#utility.yul\":7278:7302   */\n      tag_148\n      jump\t// in\n    tag_240:\n        /* \"#utility.yul\":7269:7302   */\n      swap2\n      pop\n        /* \"#utility.yul\":7324:7390   */\n      0xffffffffffffffffffffffffffffffffffffffffffffffffffffffffffffffff\n        /* \"#utility.yul\":7317:7322   */\n      dup3\n        /* \"#utility.yul\":7314:7391   */\n      sub\n        /* \"#utility.yul\":7311:7414   */\n      tag_241\n      jumpi\n        /* \"#utility.yul\":7394:7412   */\n      tag_242\n      tag_155\n      jump\t// in\n    tag_242:\n        /* \"#utility.yul\":7311:7414   */\n    tag_241:\n        /* \"#utility.yul\":7441:7442   */\n      0x01\n        /* \"#utility.yul\":7434:7439   */\n      dup3\n        /* \"#utility.yul\":7430:7443   */\n      add\n        /* \"#utility.yul\":7423:7443   */\n      swap1\n      pop\n        /* \"#utility.yul\":7216:7449   */\n      swap2\n      swap1\n      pop\n      jump\t// out\n        /* \"#utility.yul\":7455:7646   */\n    tag_88:\n        /* \"#utility.yul\":7495:7498   */\n      0x00\n        /* \"#utility.yul\":7514:7534   */\n      tag_244\n        /* \"#utility.yul\":7532:7533   */\n      dup3\n        /* \"#utility.yul\":7514:7534   */\n      tag_148\n      jump\t// in\n    tag_244:\n        /* \"#utility.yul\":7509:7534   */\n      swap2\n      pop\n        /* \"#utility.yul\":7548:7568   */\n      tag_245\n        /* \"#utility.yul\":7566:7567   */\n      dup4\n        /* \"#utility.yul\":7548:7568   */\n      tag_148\n      jump\t// in\n    tag_245:\n        /* \"#utility.yul\":7543:7568   */\n      swap3\n      pop\n        /* \"#utility.yul\":7591:7592   */\n      dup3\n        /* \"#utility.yul\":7588:7589   */\n      dup3\n        /* \"#utility.yul\":7584:7593   */\n      add\n        /* \"#utility.yul\":7577:7593   */\n      swap1\n      pop\n        /* \"#utility.yul\":7612:7615   */\n      dup1\n        /* \"#utility.yul\":7609:7610   */\n      dup3\n        /* \"#utility.yul\":7606:7616   */\n      gt\n        /* \"#utility.yul\":7603:7639   */\n      iszero\n      tag_246\n      jumpi\n        /* \"#utility.yul\":7619:7637   */\n      tag_247\n      tag_155\n      jump\t// in\n    tag_247:\n        /* \"#utility.yul\":7603:7639   */\n    tag_246:\n        /* \"#utility.yul\":7455:7646   */\n      swap3\n      swap2\n      pop\n      pop\n      jump\t// out\n        /* \"#utility.yul\":7652:7800   */\n    tag_157:\n        /* \"#utility.yul\":7754:7765   */\n      0x00\n        /* \"#utility.yul\":7791:7794   */\n      dup2\n        /* \"#utility.yul\":7776:7794   */\n      swap1\n      pop\n        /* \"#utility.yul\":7652:7800   */\n      swap3\n      swap2\n      pop\n      pop\n      jump\t// out\n        /* \"#utility.yul\":7806:7957   */\n    tag_158:\n        /* \"#utility.yul\":7946:7949   */\n      0x3000000000000000000000000000000000000000000000000000000000000000\n        /* \"#utility.yul\":7942:7943   */\n      0x00\n        /* \"#utility.yul\":7934:7940   */\n      dup3\n        /* \"#utility.yul\":7930:7944   */\n      add\n        /* \"#utility.yul\":7923:7950   */\n      mstore\n        /* \"#utility.yul\":7806:7957   */\n      pop\n      jump\t// out\n        /* \"#utility.yul\":7963:8363   */\n    tag_159:\n        /* \"#utility.yul\":8123:8126   */\n      0x00\n        /* \"#utility.yul\":8144:8228   */\n      tag_251\n        /* \"#utility.yul\":8226:8227   */\n      0x01\n        /* \"#utility.yul\":8221:8224   */\n      dup4\n        /* \"#utility.yul\":8144:8228   */\n      tag_157\n      jump\t// in\n    tag_251:\n        /* \"#utility.yul\":8137:8228   */\n      swap2\n      pop\n        /* \"#utility.yul\":8237:8330   */\n      tag_252\n        /* \"#utility.yul\":8326:8329   */\n      dup3\n        /* \"#utility.yul\":8237:8330   */\n      tag_158\n      jump\t// in\n    tag_252:\n        /* \"#utility.yul\":8355:8356   */\n      0x01\n        /* \"#utility.yul\":8350:8353   */\n      dup3\n        /* \"#utility.yul\":8346:8357   */\n      add\n        /* \"#utility.yul\":8339:8357   */\n      swap1\n      pop\n        /* \"#utility.yul\":7963:8363   */\n      swap2\n      swap1\n      pop\n      jump\t// out\n        /* \"#utility.yul\":8369:8759   */\n    tag_160:\n        /* \"#utility.yul\":8475:8478   */\n      0x00\n        /* \"#utility.yul\":8503:8542   */\n      tag_254\n        /* \"#utility.yul\":8536:8541   */\n      dup3\n        /* \"#utility.yul\":8503:8542   */\n      tag_140\n      jump\t// in\n    tag_254:\n        /* \"#utility.yul\":8558:8647   */\n      tag_255\n        /* \"#utility.yul\":8640:8646   */\n      dup2\n        /* \"#utility.yul\":8635:8638   */\n      dup6\n        /* \"#utility.yul\":8558:8647   */\n      tag_157\n      jump\t// in\n    tag_255:\n        /* \"#utility.yul\":8551:8647   */\n      swap4\n      pop\n        /* \"#utility.yul\":8656:8721   */\n      tag_256\n        /* \"#utility.yul\":8714:8720   */\n      dup2\n        /* \"#utility.yul\":8709:8712   */\n      dup6\n        /* \"#utility.yul\":8702:8706   */\n      0x20\n        /* \"#utility.yul\":8695:8700   */\n      dup7\n        /* \"#utility.yul\":8691:8707   */\n      add\n        /* \"#utility.yul\":8656:8721   */\n      tag_142\n      jump\t// in\n    tag_256:\n        /* \"#utility.yul\":8746:8752   */\n      dup1\n        /* \"#utility.yul\":8741:8744   */\n      dup5\n        /* \"#utility.yul\":8737:8753   */\n      add\n        /* \"#utility.yul\":8730:8753   */\n      swap2\n      pop\n        /* \"#utility.yul\":8479:8759   */\n      pop\n        /* \"#utility.yul\":8369:8759   */\n      swap3\n      swap2\n      pop\n      pop\n      jump\t// out\n        /* \"#utility.yul\":8765:9306   */\n    tag_98:\n        /* \"#utility.yul\":8998:9001   */\n      0x00\n        /* \"#utility.yul\":9020:9168   */\n      tag_258\n        /* \"#utility.yul\":9164:9167   */\n      dup3\n        /* \"#utility.yul\":9020:9168   */\n      tag_159\n      jump\t// in\n    tag_258:\n        /* \"#utility.yul\":9013:9168   */\n      swap2\n      pop\n        /* \"#utility.yul\":9185:9280   */\n      tag_259\n        /* \"#utility.yul\":9276:9279   */\n      dup3\n        /* \"#utility.yul\":9267:9273   */\n      dup5\n        /* \"#utility.yul\":9185:9280   */\n      tag_160\n      jump\t// in\n    tag_259:\n        /* \"#utility.yul\":9178:9280   */\n      swap2\n      pop\n        /* \"#utility.yul\":9297:9300   */\n      dup2\n        /* \"#utility.yul\":9290:9300   */\n      swap1\n      pop\n        /* \"#utility.yul\":8765:9306   */\n      swap3\n      swap2\n      pop\n      pop\n      jump\t// out\n        /* \"#utility.yul\":9312:9463   */\n    tag_161:\n        /* \"#utility.yul\":9452:9455   */\n      0x2d00000000000000000000000000000000000000000000000000000000000000\n        /* \"#utility.yul\":9448:9449   */\n      0x00\n        /* \"#utility.yul\":9440:9446   */\n      dup3\n        /* \"#utility.yul\":9436:9450   */\n      add\n        /* \"#utility.yul\":9429:9456   */\n      mstore\n        /* \"#utility.yul\":9312:9463   */\n      pop\n      jump\t// out\n        /* \"#utility.yul\":9469:9869   */\n    tag_162:\n        /* \"#utility.yul\":9629:9632   */\n      0x00\n        /* \"#utility.yul\":9650:9734   */\n      tag_262\n        /* \"#utility.yul\":9732:9733   */\n      0x01\n        /* \"#utility.yul\":9727:9730   */\n      dup4\n        /* \"#utility.yul\":9650:9734   */\n      tag_157\n      jump\t// in\n    tag_262:\n        /* \"#utility.yul\":9643:9734   */\n      swap2\n      pop\n        /* \"#utility.yul\":9743:9836   */\n      tag_263\n        /* \"#utility.yul\":9832:9835   */\n      dup3\n        /* \"#utility.yul\":9743:9836   */\n      tag_161\n      jump\t// in\n    tag_263:\n        /* \"#utility.yul\":9861:9862   */\n      0x01\n        /* \"#utility.yul\":9856:9859   */\n      dup3\n        /* \"#utility.yul\":9852:9863   */\n      add\n        /* \"#utility.yul\":9845:9863   */\n      swap1\n      pop\n        /* \"#utility.yul\":9469:9869   */\n      swap2\n      swap1\n      pop\n      jump\t// out\n        /* \"#utility.yul\":9875:11002   */\n    tag_105:\n        /* \"#utility.yul\":10305:10308   */\n      0x00\n        /* \"#utility.yul\":10327:10422   */\n      tag_265\n        /* \"#utility.yul\":10418:10421   */\n      dup3\n        /* \"#utility.yul\":10409:10415   */\n      dup7\n        /* \"#utility.yul\":10327:10422   */\n      tag_160\n      jump\t// in\n    tag_265:\n        /* \"#utility.yul\":10320:10422   */\n      swap2\n      pop\n        /* \"#utility.yul\":10439:10587   */\n      tag_266\n        /* \"#utility.yul\":10583:10586   */\n      dup3\n        /* \"#utility.yul\":10439:10587   */\n      tag_162\n      jump\t// in\n    tag_266:\n        /* \"#utility.yul\":10432:10587   */\n      swap2\n      pop\n        /* \"#utility.yul\":10604:10699   */\n      tag_267\n        /* \"#utility.yul\":10695:10698   */\n      dup3\n        /* \"#utility.yul\":10686:10692   */\n      dup6\n        /* \"#utility.yul\":10604:10699   */\n      tag_160\n      jump\t// in\n    tag_267:\n        /* \"#utility.yul\":10597:10699   */\n      swap2\n      pop\n        /* \"#utility.yul\":10716:10864   */\n      tag_268\n        /* \"#utility.yul\":10860:10863   */\n      dup3\n        /* \"#utility.yul\":10716:10864   */\n      tag_162\n      jump\t// in\n    tag_268:\n        /* \"#utility.yul\":10709:10864   */\n      swap2\n      pop\n        /* \"#utility.yul\":10881:10976   */\n      tag_269\n        /* \"#utility.yul\":10972:10975   */\n      dup3\n        /* \"#utility.yul\":10963:10969   */\n      dup5\n        /* \"#utility.yul\":10881:10976   */\n      tag_160\n      jump\t// in\n    tag_269:\n        /* \"#utility.yul\":10874:10976   */\n      swap2\n      pop\n        /* \"#utility.yul\":10993:10996   */\n      dup2\n        /* \"#utility.yul\":10986:10996   */\n      swap1\n      pop\n        /* \"#utility.yul\":9875:11002   */\n      swap5\n      swap4\n      pop\n      pop\n      pop\n      pop\n      jump\t// out\n        /* \"#utility.yul\":11008:11188   */\n    tag_114:\n        /* \"#utility.yul\":11056:11133   */\n      0x4e487b7100000000000000000000000000000000000000000000000000000000\n        /* \"#utility.yul\":11053:11054   */\n      0x00\n        /* \"#utility.yul\":11046:11134   */\n      mstore\n        /* \"#utility.yul\":11153:11157   */\n      0x41\n        /* \"#utility.yul\":11150:11151   */\n      0x04\n        /* \"#utility.yul\":11143:11158   */\n      mstore\n        /* \"#utility.yul\":11177:11181   */\n      0x24\n        /* \"#utility.yul\":11174:11175   */\n      0x00\n        /* \"#utility.yul\":11167:11182   */\n      revert\n        /* \"#utility.yul\":11194:11370   */\n    tag_120:\n        /* \"#utility.yul\":11226:11227   */\n      0x00\n        /* \"#utility.yul\":11243:11263   */\n      tag_272\n        /* \"#utility.yul\":11261:11262   */\n      dup3\n        /* \"#utility.yul\":11243:11263   */\n      tag_148\n      jump\t// in\n    tag_272:\n        /* \"#utility.yul\":11238:11263   */\n      swap2\n      pop\n        /* \"#utility.yul\":11277:11297   */\n      tag_273\n        /* \"#utility.yul\":11295:11296   */\n      dup4\n        /* \"#utility.yul\":11277:11297   */\n      tag_148\n      jump\t// in\n    tag_273:\n        /* \"#utility.yul\":11272:11297   */\n      swap3\n      pop\n        /* \"#utility.yul\":11316:11317   */\n      dup3\n        /* \"#utility.yul\":11306:11341   */\n      tag_274\n      jumpi\n        /* \"#utility.yul\":11321:11339   */\n      tag_275\n      tag_156\n      jump\t// in\n    tag_275:\n        /* \"#utility.yul\":11306:11341   */\n    tag_274:\n        /* \"#utility.yul\":11362:11363   */\n      dup3\n        /* \"#utility.yul\":11359:11360   */\n      dup3\n        /* \"#utility.yul\":11355:11364   */\n      mod\n        /* \"#utility.yul\":11350:11364   */\n      swap1\n      pop\n        /* \"#utility.yul\":11194:11370   */\n      swap3\n      swap2\n      pop\n      pop\n      jump\t// out\n\n    auxdata: 0xa2646970667358221220357303645b06b4f019865f74a8afd68cccc1e480974e7837fc97ca3ce5c1dd4564736f6c634300081a0033\n}\n",
				"bytecode": {
					"linkReferences": {},
					"object": "60806040525f80556001600460146101000a81548160ff021916908315150217905550348015602c575f80fd5b503360045f6101000a81548173ffffffffffffffffffffffffffffffffffffffff021916908373ffffffffffffffffffffffffffffffffffffffff160217905550610f628061007a5f395ff3fe608060405234801561000f575f80fd5b5060043610610049575f3560e01c8062ce8e3e1461004d5780639254d7721461006b578063bab1dac814610089578063f4961fa3146100b9575b5f80fd5b6100556100e9565b6040516100629190610a3a565b60405180910390f35b610073610174565b6040516100809190610aca565b60405180910390f35b6100a3600480360381019061009e9190610b21565b610184565b6040516100b09190610aca565b60405180910390f35b6100d360048036038101906100ce9190610b76565b61031e565b6040516100e09190610aca565b60405180910390f35b6060600380548060200260200160405190810160405280929190818152602001828054801561016a57602002820191905f5260205f20905b815f9054906101000a900473ffffffffffffffffffffffffffffffffffffffff1673ffffffffffffffffffffffffffffffffffffffff1681526020019060010190808311610121575b5050505050905090565b606061017f4261056b565b905090565b60605f82116101c8576040517f08c379a00000000000000000000000000000000000000000000000000000000081526004016101bf90610beb565b60405180910390fd5b8160015f3373ffffffffffffffffffffffffffffffffffffffff1673ffffffffffffffffffffffffffffffffffffffff1681526020019081526020015f208190555060025f3373ffffffffffffffffffffffffffffffffffffffff1673ffffffffffffffffffffffffffffffffffffffff1681526020019081526020015f205f9054906101000a900460ff1661030e57600160025f3373ffffffffffffffffffffffffffffffffffffffff1673ffffffffffffffffffffffffffffffffffffffff1681526020019081526020015f205f6101000a81548160ff021916908315150217905550600333908060018154018082558091505060019003905f5260205f20015f9091909190916101000a81548173ffffffffffffffffffffffffffffffffffffffff021916908373ffffffffffffffffffffffffffffffffffffffff1602179055505b610317826107b4565b9050919050565b606060015f8373ffffffffffffffffffffffffffffffffffffffff1673ffffffffffffffffffffffffffffffffffffffff1681526020019081526020015f205f90555f60025f3373ffffffffffffffffffffffffffffffffffffffff1673ffffffffffffffffffffffffffffffffffffffff1681526020019081526020015f205f6101000a81548160ff0219169083151502179055505f5b60038054905081101561052d578273ffffffffffffffffffffffffffffffffffffffff16600382815481106103ee576103ed610c09565b5b905f5260205f20015f9054906101000a900473ffffffffffffffffffffffffffffffffffffffff1673ffffffffffffffffffffffffffffffffffffffff160361052057600360016003805490506104459190610c63565b8154811061045657610455610c09565b5b905f5260205f20015f9054906101000a900473ffffffffffffffffffffffffffffffffffffffff166003828154811061049257610491610c09565b5b905f5260205f20015f6101000a81548173ffffffffffffffffffffffffffffffffffffffff021916908373ffffffffffffffffffffffffffffffffffffffff16021790555060038054806104e9576104e8610c96565b5b600190038181905f5260205f20015f6101000a81549073ffffffffffffffffffffffffffffffffffffffff0219169055905561052d565b80806001019150506103b6565b506040518060400160405280600281526020017f4f4b0000000000000000000000000000000000000000000000000000000000008152509050919050565b60605f6107b290505f62015180846105839190610cf0565b90505b61016d81106105e9576105988261090d565b156105c55761016e81106105bb5761016e816105b49190610c63565b90506105c0565b6105e9565b6105d6565b61016d816105d39190610c63565b90505b81806105e190610d20565b925050610586565b5f604051806101800160405280601f81526020016106068561090d565b61061157601c610614565b601d5b60ff168152602001601f8152602001601e8152602001601f8152602001601e8152602001601f8152602001601f8152602001601e8152602001601f8152602001601e8152602001601f81525090505f5b600c8110156106bd578181600c81106106805761067f610c09565b5b602002015183106106bd578181600c811061069e5761069d610c09565b5b6020020151836106ae9190610c63565b92508080600101915050610664565b5f6001846106cb9190610d67565b90505f6106d7866107b4565b90505f600a6001856106e99190610d67565b10610708576107036001856106fe9190610d67565b6107b4565b61073d565b61071d6001856107189190610d67565b6107b4565b60405160200161072d9190610e1e565b6040516020818303038152906040525b90505f600a841061075657610751846107b4565b61077f565b61075f846107b4565b60405160200161076f9190610e1e565b6040516020818303038152906040525b905082828260405160200161079693929190610e89565b60405160208183030381529060405298505050505050505050919050565b60605f82036107fa576040518060400160405280600181526020017f30000000000000000000000000000000000000000000000000000000000000008152509050610908565b5f8290505f5b5f821461082957808061081290610d20565b915050600a826108229190610cf0565b9150610800565b5f8167ffffffffffffffff81111561084457610843610ecf565b5b6040519080825280601f01601f1916602001820160405280156108765781602001600182028036833780820191505090505b5090505b5f85146109015760018261088e9190610c63565b9150600a8561089d9190610efc565b60306108a99190610d67565b60f81b8183815181106108bf576108be610c09565b5b60200101907effffffffffffffffffffffffffffffffffffffffffffffffffffffffffffff191690815f1a905350600a856108fa9190610cf0565b945061087a565b8093505050505b919050565b5f8060048361091c9190610efc565b14801561093557505f6064836109329190610efc565b14155b8061094c57505f6101908361094a9190610efc565b145b9050919050565b5f81519050919050565b5f82825260208201905092915050565b5f819050602082019050919050565b5f73ffffffffffffffffffffffffffffffffffffffff82169050919050565b5f6109a58261097c565b9050919050565b6109b58161099b565b82525050565b5f6109c683836109ac565b60208301905092915050565b5f602082019050919050565b5f6109e882610953565b6109f2818561095d565b93506109fd8361096d565b805f5b83811015610a2d578151610a1488826109bb565b9750610a1f836109d2565b925050600181019050610a00565b5085935050505092915050565b5f6020820190508181035f830152610a5281846109de565b905092915050565b5f81519050919050565b5f82825260208201905092915050565b8281835e5f83830152505050565b5f601f19601f8301169050919050565b5f610a9c82610a5a565b610aa68185610a64565b9350610ab6818560208601610a74565b610abf81610a82565b840191505092915050565b5f6020820190508181035f830152610ae28184610a92565b905092915050565b5f80fd5b5f819050919050565b610b0081610aee565b8114610b0a575f80fd5b50565b5f81359050610b1b81610af7565b92915050565b5f60208284031215610b3657610b35610aea565b5b5f610b4384828501610b0d565b91505092915050565b610b558161099b565b8114610b5f575f80fd5b50565b5f81359050610b7081610b4c565b92915050565b5f60208284031215610b8b57610b8a610aea565b5b5f610b9884828501610b62565b91505092915050565b7f7072696365206973207a65726f000000000000000000000000000000000000005f82015250565b5f610bd5600d83610a64565b9150610be082610ba1565b602082019050919050565b5f6020820190508181035f830152610c0281610bc9565b9050919050565b7f4e487b71000000000000000000000000000000000000000000000000000000005f52603260045260245ffd5b7f4e487b71000000000000000000000000000000000000000000000000000000005f52601160045260245ffd5b5f610c6d82610aee565b9150610c7883610aee565b9250828203905081811115610c9057610c8f610c36565b5b92915050565b7f4e487b71000000000000000000000000000000000000000000000000000000005f52603160045260245ffd5b7f4e487b71000000000000000000000000000000000000000000000000000000005f52601260045260245ffd5b5f610cfa82610aee565b9150610d0583610aee565b925082610d1557610d14610cc3565b5b828204905092915050565b5f610d2a82610aee565b91507fffffffffffffffffffffffffffffffffffffffffffffffffffffffffffffffff8203610d5c57610d5b610c36565b5b600182019050919050565b5f610d7182610aee565b9150610d7c83610aee565b9250828201905080821115610d9457610d93610c36565b5b92915050565b5f81905092915050565b7f30000000000000000000000000000000000000000000000000000000000000005f82015250565b5f610dd8600183610d9a565b9150610de382610da4565b600182019050919050565b5f610df882610a5a565b610e028185610d9a565b9350610e12818560208601610a74565b80840191505092915050565b5f610e2882610dcc565b9150610e348284610dee565b915081905092915050565b7f2d000000000000000000000000000000000000000000000000000000000000005f82015250565b5f610e73600183610d9a565b9150610e7e82610e3f565b600182019050919050565b5f610e948286610dee565b9150610e9f82610e67565b9150610eab8285610dee565b9150610eb682610e67565b9150610ec28284610dee565b9150819050949350505050565b7f4e487b71000000000000000000000000000000000000000000000000000000005f52604160045260245ffd5b5f610f0682610aee565b9150610f1183610aee565b925082610f2157610f20610cc3565b5b82820690509291505056fea2646970667358221220357303645b06b4f019865f74a8afd68cccc1e480974e7837fc97ca3ce5c1dd4564736f6c634300081a0033",
					"opcodes": "PUSH1 0x80 PUSH1 0x40 MSTORE PUSH0 DUP1 SSTORE PUSH1 0x1 PUSH1 0x4 PUSH1 0x14 PUSH2 0x100 EXP DUP2 SLOAD DUP2 PUSH1 0xFF MUL NOT AND SWAP1 DUP4 ISZERO ISZERO MUL OR SWAP1 SSTORE POP CALLVALUE DUP1 ISZERO PUSH1 0x2C JUMPI PUSH0 DUP1 REVERT JUMPDEST POP CALLER PUSH1 0x4 PUSH0 PUSH2 0x100 EXP DUP2 SLOAD DUP2 PUSH20 0xFFFFFFFFFFFFFFFFFFFFFFFFFFFFFFFFFFFFFFFF MUL NOT AND SWAP1 DUP4 PUSH20 0xFFFFFFFFFFFFFFFFFFFFFFFFFFFFFFFFFFFFFFFF AND MUL OR SWAP1 SSTORE POP PUSH2 0xF62 DUP1 PUSH2 0x7A PUSH0 CODECOPY PUSH0 RETURN INVALID PUSH1 0x80 PUSH1 0x40 MSTORE CALLVALUE DUP1 ISZERO PUSH2 0xF JUMPI PUSH0 DUP1 REVERT JUMPDEST POP PUSH1 0x4 CALLDATASIZE LT PUSH2 0x49 JUMPI PUSH0 CALLDATALOAD PUSH1 0xE0 SHR DUP1 PUSH3 0xCE8E3E EQ PUSH2 0x4D JUMPI DUP1 PUSH4 0x9254D772 EQ PUSH2 0x6B JUMPI DUP1 PUSH4 0xBAB1DAC8 EQ PUSH2 0x89 JUMPI DUP1 PUSH4 0xF4961FA3 EQ PUSH2 0xB9 JUMPI JUMPDEST PUSH0 DUP1 REVERT JUMPDEST PUSH2 0x55 PUSH2 0xE9 JUMP JUMPDEST PUSH1 0x40 MLOAD PUSH2 0x62 SWAP2 SWAP1 PUSH2 0xA3A JUMP JUMPDEST PUSH1 0x40 MLOAD DUP1 SWAP2 SUB SWAP1 RETURN JUMPDEST PUSH2 0x73 PUSH2 0x174 JUMP JUMPDEST PUSH1 0x40 MLOAD PUSH2 0x80 SWAP2 SWAP1 PUSH2 0xACA JUMP JUMPDEST PUSH1 0x40 MLOAD DUP1 SWAP2 SUB SWAP1 RETURN JUMPDEST PUSH2 0xA3 PUSH1 0x4 DUP1 CALLDATASIZE SUB DUP2 ADD SWAP1 PUSH2 0x9E SWAP2 SWAP1 PUSH2 0xB21 JUMP JUMPDEST PUSH2 0x184 JUMP JUMPDEST PUSH1 0x40 MLOAD PUSH2 0xB0 SWAP2 SWAP1 PUSH2 0xACA JUMP JUMPDEST PUSH1 0x40 MLOAD DUP1 SWAP2 SUB SWAP1 RETURN JUMPDEST PUSH2 0xD3 PUSH1 0x4 DUP1 CALLDATASIZE SUB DUP2 ADD SWAP1 PUSH2 0xCE SWAP2 SWAP1 PUSH2 0xB76 JUMP JUMPDEST PUSH2 0x31E JUMP JUMPDEST PUSH1 0x40 MLOAD PUSH2 0xE0 SWAP2 SWAP1 PUSH2 0xACA JUMP JUMPDEST PUSH1 0x40 MLOAD DUP1 SWAP2 SUB SWAP1 RETURN JUMPDEST PUSH1 0x60 PUSH1 0x3 DUP1 SLOAD DUP1 PUSH1 0x20 MUL PUSH1 0x20 ADD PUSH1 0x40 MLOAD SWAP1 DUP2 ADD PUSH1 0x40 MSTORE DUP1 SWAP3 SWAP2 SWAP1 DUP2 DUP2 MSTORE PUSH1 0x20 ADD DUP3 DUP1 SLOAD DUP1 ISZERO PUSH2 0x16A JUMPI PUSH1 0x20 MUL DUP3 ADD SWAP2 SWAP1 PUSH0 MSTORE PUSH1 0x20 PUSH0 KECCAK256 SWAP1 JUMPDEST DUP2 PUSH0 SWAP1 SLOAD SWAP1 PUSH2 0x100 EXP SWAP1 DIV PUSH20 0xFFFFFFFFFFFFFFFFFFFFFFFFFFFFFFFFFFFFFFFF AND PUSH20 0xFFFFFFFFFFFFFFFFFFFFFFFFFFFFFFFFFFFFFFFF AND DUP2 MSTORE PUSH1 0x20 ADD SWAP1 PUSH1 0x1 ADD SWAP1 DUP1 DUP4 GT PUSH2 0x121 JUMPI JUMPDEST POP POP POP POP POP SWAP1 POP SWAP1 JUMP JUMPDEST PUSH1 0x60 PUSH2 0x17F TIMESTAMP PUSH2 0x56B JUMP JUMPDEST SWAP1 POP SWAP1 JUMP JUMPDEST PUSH1 0x60 PUSH0 DUP3 GT PUSH2 0x1C8 JUMPI PUSH1 0x40 MLOAD PUSH32 0x8C379A000000000000000000000000000000000000000000000000000000000 DUP2 MSTORE PUSH1 0x4 ADD PUSH2 0x1BF SWAP1 PUSH2 0xBEB JUMP JUMPDEST PUSH1 0x40 MLOAD DUP1 SWAP2 SUB SWAP1 REVERT JUMPDEST DUP2 PUSH1 0x1 PUSH0 CALLER PUSH20 0xFFFFFFFFFFFFFFFFFFFFFFFFFFFFFFFFFFFFFFFF AND PUSH20 0xFFFFFFFFFFFFFFFFFFFFFFFFFFFFFFFFFFFFFFFF AND DUP2 MSTORE PUSH1 0x20 ADD SWAP1 DUP2 MSTORE PUSH1 0x20 ADD PUSH0 KECCAK256 DUP2 SWAP1 SSTORE POP PUSH1 0x2 PUSH0 CALLER PUSH20 0xFFFFFFFFFFFFFFFFFFFFFFFFFFFFFFFFFFFFFFFF AND PUSH20 0xFFFFFFFFFFFFFFFFFFFFFFFFFFFFFFFFFFFFFFFF AND DUP2 MSTORE PUSH1 0x20 ADD SWAP1 DUP2 MSTORE PUSH1 0x20 ADD PUSH0 KECCAK256 PUSH0 SWAP1 SLOAD SWAP1 PUSH2 0x100 EXP SWAP1 DIV PUSH1 0xFF AND PUSH2 0x30E JUMPI PUSH1 0x1 PUSH1 0x2 PUSH0 CALLER PUSH20 0xFFFFFFFFFFFFFFFFFFFFFFFFFFFFFFFFFFFFFFFF AND PUSH20 0xFFFFFFFFFFFFFFFFFFFFFFFFFFFFFFFFFFFFFFFF AND DUP2 MSTORE PUSH1 0x20 ADD SWAP1 DUP2 MSTORE PUSH1 0x20 ADD PUSH0 KECCAK256 PUSH0 PUSH2 0x100 EXP DUP2 SLOAD DUP2 PUSH1 0xFF MUL NOT AND SWAP1 DUP4 ISZERO ISZERO MUL OR SWAP1 SSTORE POP PUSH1 0x3 CALLER SWAP1 DUP1 PUSH1 0x1 DUP2 SLOAD ADD DUP1 DUP3 SSTORE DUP1 SWAP2 POP POP PUSH1 0x1 SWAP1 SUB SWAP1 PUSH0 MSTORE PUSH1 0x20 PUSH0 KECCAK256 ADD PUSH0 SWAP1 SWAP2 SWAP1 SWAP2 SWAP1 SWAP2 PUSH2 0x100 EXP DUP2 SLOAD DUP2 PUSH20 0xFFFFFFFFFFFFFFFFFFFFFFFFFFFFFFFFFFFFFFFF MUL NOT AND SWAP1 DUP4 PUSH20 0xFFFFFFFFFFFFFFFFFFFFFFFFFFFFFFFFFFFFFFFF AND MUL OR SWAP1 SSTORE POP JUMPDEST PUSH2 0x317 DUP3 PUSH2 0x7B4 JUMP JUMPDEST SWAP1 POP SWAP2 SWAP1 POP JUMP JUMPDEST PUSH1 0x60 PUSH1 0x1 PUSH0 DUP4 PUSH20 0xFFFFFFFFFFFFFFFFFFFFFFFFFFFFFFFFFFFFFFFF AND PUSH20 0xFFFFFFFFFFFFFFFFFFFFFFFFFFFFFFFFFFFFFFFF AND DUP2 MSTORE PUSH1 0x20 ADD SWAP1 DUP2 MSTORE PUSH1 0x20 ADD PUSH0 KECCAK256 PUSH0 SWAP1 SSTORE PUSH0 PUSH1 0x2 PUSH0 CALLER PUSH20 0xFFFFFFFFFFFFFFFFFFFFFFFFFFFFFFFFFFFFFFFF AND PUSH20 0xFFFFFFFFFFFFFFFFFFFFFFFFFFFFFFFFFFFFFFFF AND DUP2 MSTORE PUSH1 0x20 ADD SWAP1 DUP2 MSTORE PUSH1 0x20 ADD PUSH0 KECCAK256 PUSH0 PUSH2 0x100 EXP DUP2 SLOAD DUP2 PUSH1 0xFF MUL NOT AND SWAP1 DUP4 ISZERO ISZERO MUL OR SWAP1 SSTORE POP PUSH0 JUMPDEST PUSH1 0x3 DUP1 SLOAD SWAP1 POP DUP2 LT ISZERO PUSH2 0x52D JUMPI DUP3 PUSH20 0xFFFFFFFFFFFFFFFFFFFFFFFFFFFFFFFFFFFFFFFF AND PUSH1 0x3 DUP3 DUP2 SLOAD DUP2 LT PUSH2 0x3EE JUMPI PUSH2 0x3ED PUSH2 0xC09 JUMP JUMPDEST JUMPDEST SWAP1 PUSH0 MSTORE PUSH1 0x20 PUSH0 KECCAK256 ADD PUSH0 SWAP1 SLOAD SWAP1 PUSH2 0x100 EXP SWAP1 DIV PUSH20 0xFFFFFFFFFFFFFFFFFFFFFFFFFFFFFFFFFFFFFFFF AND PUSH20 0xFFFFFFFFFFFFFFFFFFFFFFFFFFFFFFFFFFFFFFFF AND SUB PUSH2 0x520 JUMPI PUSH1 0x3 PUSH1 0x1 PUSH1 0x3 DUP1 SLOAD SWAP1 POP PUSH2 0x445 SWAP2 SWAP1 PUSH2 0xC63 JUMP JUMPDEST DUP2 SLOAD DUP2 LT PUSH2 0x456 JUMPI PUSH2 0x455 PUSH2 0xC09 JUMP JUMPDEST JUMPDEST SWAP1 PUSH0 MSTORE PUSH1 0x20 PUSH0 KECCAK256 ADD PUSH0 SWAP1 SLOAD SWAP1 PUSH2 0x100 EXP SWAP1 DIV PUSH20 0xFFFFFFFFFFFFFFFFFFFFFFFFFFFFFFFFFFFFFFFF AND PUSH1 0x3 DUP3 DUP2 SLOAD DUP2 LT PUSH2 0x492 JUMPI PUSH2 0x491 PUSH2 0xC09 JUMP JUMPDEST JUMPDEST SWAP1 PUSH0 MSTORE PUSH1 0x20 PUSH0 KECCAK256 ADD PUSH0 PUSH2 0x100 EXP DUP2 SLOAD DUP2 PUSH20 0xFFFFFFFFFFFFFFFFFFFFFFFFFFFFFFFFFFFFFFFF MUL NOT AND SWAP1 DUP4 PUSH20 0xFFFFFFFFFFFFFFFFFFFFFFFFFFFFFFFFFFFFFFFF AND MUL OR SWAP1 SSTORE POP PUSH1 0x3 DUP1 SLOAD DUP1 PUSH2 0x4E9 JUMPI PUSH2 0x4E8 PUSH2 0xC96 JUMP JUMPDEST JUMPDEST PUSH1 0x1 SWAP1 SUB DUP2 DUP2 SWAP1 PUSH0 MSTORE PUSH1 0x20 PUSH0 KECCAK256 ADD PUSH0 PUSH2 0x100 EXP DUP2 SLOAD SWAP1 PUSH20 0xFFFFFFFFFFFFFFFFFFFFFFFFFFFFFFFFFFFFFFFF MUL NOT AND SWAP1 SSTORE SWAP1 SSTORE PUSH2 0x52D JUMP JUMPDEST DUP1 DUP1 PUSH1 0x1 ADD SWAP2 POP POP PUSH2 0x3B6 JUMP JUMPDEST POP PUSH1 0x40 MLOAD DUP1 PUSH1 0x40 ADD PUSH1 0x40 MSTORE DUP1 PUSH1 0x2 DUP2 MSTORE PUSH1 0x20 ADD PUSH32 0x4F4B000000000000000000000000000000000000000000000000000000000000 DUP2 MSTORE POP SWAP1 POP SWAP2 SWAP1 POP JUMP JUMPDEST PUSH1 0x60 PUSH0 PUSH2 0x7B2 SWAP1 POP PUSH0 PUSH3 0x15180 DUP5 PUSH2 0x583 SWAP2 SWAP1 PUSH2 0xCF0 JUMP JUMPDEST SWAP1 POP JUMPDEST PUSH2 0x16D DUP2 LT PUSH2 0x5E9 JUMPI PUSH2 0x598 DUP3 PUSH2 0x90D JUMP JUMPDEST ISZERO PUSH2 0x5C5 JUMPI PUSH2 0x16E DUP2 LT PUSH2 0x5BB JUMPI PUSH2 0x16E DUP2 PUSH2 0x5B4 SWAP2 SWAP1 PUSH2 0xC63 JUMP JUMPDEST SWAP1 POP PUSH2 0x5C0 JUMP JUMPDEST PUSH2 0x5E9 JUMP JUMPDEST PUSH2 0x5D6 JUMP JUMPDEST PUSH2 0x16D DUP2 PUSH2 0x5D3 SWAP2 SWAP1 PUSH2 0xC63 JUMP JUMPDEST SWAP1 POP JUMPDEST DUP2 DUP1 PUSH2 0x5E1 SWAP1 PUSH2 0xD20 JUMP JUMPDEST SWAP3 POP POP PUSH2 0x586 JUMP JUMPDEST PUSH0 PUSH1 0x40 MLOAD DUP1 PUSH2 0x180 ADD PUSH1 0x40 MSTORE DUP1 PUSH1 0x1F DUP2 MSTORE PUSH1 0x20 ADD PUSH2 0x606 DUP6 PUSH2 0x90D JUMP JUMPDEST PUSH2 0x611 JUMPI PUSH1 0x1C PUSH2 0x614 JUMP JUMPDEST PUSH1 0x1D JUMPDEST PUSH1 0xFF AND DUP2 MSTORE PUSH1 0x20 ADD PUSH1 0x1F DUP2 MSTORE PUSH1 0x20 ADD PUSH1 0x1E DUP2 MSTORE PUSH1 0x20 ADD PUSH1 0x1F DUP2 MSTORE PUSH1 0x20 ADD PUSH1 0x1E DUP2 MSTORE PUSH1 0x20 ADD PUSH1 0x1F DUP2 MSTORE PUSH1 0x20 ADD PUSH1 0x1F DUP2 MSTORE PUSH1 0x20 ADD PUSH1 0x1E DUP2 MSTORE PUSH1 0x20 ADD PUSH1 0x1F DUP2 MSTORE PUSH1 0x20 ADD PUSH1 0x1E DUP2 MSTORE PUSH1 0x20 ADD PUSH1 0x1F DUP2 MSTORE POP SWAP1 POP PUSH0 JUMPDEST PUSH1 0xC DUP2 LT ISZERO PUSH2 0x6BD JUMPI DUP2 DUP2 PUSH1 0xC DUP2 LT PUSH2 0x680 JUMPI PUSH2 0x67F PUSH2 0xC09 JUMP JUMPDEST JUMPDEST PUSH1 0x20 MUL ADD MLOAD DUP4 LT PUSH2 0x6BD JUMPI DUP2 DUP2 PUSH1 0xC DUP2 LT PUSH2 0x69E JUMPI PUSH2 0x69D PUSH2 0xC09 JUMP JUMPDEST JUMPDEST PUSH1 0x20 MUL ADD MLOAD DUP4 PUSH2 0x6AE SWAP2 SWAP1 PUSH2 0xC63 JUMP JUMPDEST SWAP3 POP DUP1 DUP1 PUSH1 0x1 ADD SWAP2 POP POP PUSH2 0x664 JUMP JUMPDEST PUSH0 PUSH1 0x1 DUP5 PUSH2 0x6CB SWAP2 SWAP1 PUSH2 0xD67 JUMP JUMPDEST SWAP1 POP PUSH0 PUSH2 0x6D7 DUP7 PUSH2 0x7B4 JUMP JUMPDEST SWAP1 POP PUSH0 PUSH1 0xA PUSH1 0x1 DUP6 PUSH2 0x6E9 SWAP2 SWAP1 PUSH2 0xD67 JUMP JUMPDEST LT PUSH2 0x708 JUMPI PUSH2 0x703 PUSH1 0x1 DUP6 PUSH2 0x6FE SWAP2 SWAP1 PUSH2 0xD67 JUMP JUMPDEST PUSH2 0x7B4 JUMP JUMPDEST PUSH2 0x73D JUMP JUMPDEST PUSH2 0x71D PUSH1 0x1 DUP6 PUSH2 0x718 SWAP2 SWAP1 PUSH2 0xD67 JUMP JUMPDEST PUSH2 0x7B4 JUMP JUMPDEST PUSH1 0x40 MLOAD PUSH1 0x20 ADD PUSH2 0x72D SWAP2 SWAP1 PUSH2 0xE1E JUMP JUMPDEST PUSH1 0x40 MLOAD PUSH1 0x20 DUP2 DUP4 SUB SUB DUP2 MSTORE SWAP1 PUSH1 0x40 MSTORE JUMPDEST SWAP1 POP PUSH0 PUSH1 0xA DUP5 LT PUSH2 0x756 JUMPI PUSH2 0x751 DUP5 PUSH2 0x7B4 JUMP JUMPDEST PUSH2 0x77F JUMP JUMPDEST PUSH2 0x75F DUP5 PUSH2 0x7B4 JUMP JUMPDEST PUSH1 0x40 MLOAD PUSH1 0x20 ADD PUSH2 0x76F SWAP2 SWAP1 PUSH2 0xE1E JUMP JUMPDEST PUSH1 0x40 MLOAD PUSH1 0x20 DUP2 DUP4 SUB SUB DUP2 MSTORE SWAP1 PUSH1 0x40 MSTORE JUMPDEST SWAP1 POP DUP3 DUP3 DUP3 PUSH1 0x40 MLOAD PUSH1 0x20 ADD PUSH2 0x796 SWAP4 SWAP3 SWAP2 SWAP1 PUSH2 0xE89 JUMP JUMPDEST PUSH1 0x40 MLOAD PUSH1 0x20 DUP2 DUP4 SUB SUB DUP2 MSTORE SWAP1 PUSH1 0x40 MSTORE SWAP9 POP POP POP POP POP POP POP POP POP SWAP2 SWAP1 POP JUMP JUMPDEST PUSH1 0x60 PUSH0 DUP3 SUB PUSH2 0x7FA JUMPI PUSH1 0x40 MLOAD DUP1 PUSH1 0x40 ADD PUSH1 0x40 MSTORE DUP1 PUSH1 0x1 DUP2 MSTORE PUSH1 0x20 ADD PUSH32 0x3000000000000000000000000000000000000000000000000000000000000000 DUP2 MSTORE POP SWAP1 POP PUSH2 0x908 JUMP JUMPDEST PUSH0 DUP3 SWAP1 POP PUSH0 JUMPDEST PUSH0 DUP3 EQ PUSH2 0x829 JUMPI DUP1 DUP1 PUSH2 0x812 SWAP1 PUSH2 0xD20 JUMP JUMPDEST SWAP2 POP POP PUSH1 0xA DUP3 PUSH2 0x822 SWAP2 SWAP1 PUSH2 0xCF0 JUMP JUMPDEST SWAP2 POP PUSH2 0x800 JUMP JUMPDEST PUSH0 DUP2 PUSH8 0xFFFFFFFFFFFFFFFF DUP2 GT ISZERO PUSH2 0x844 JUMPI PUSH2 0x843 PUSH2 0xECF JUMP JUMPDEST JUMPDEST PUSH1 0x40 MLOAD SWAP1 DUP1 DUP3 MSTORE DUP1 PUSH1 0x1F ADD PUSH1 0x1F NOT AND PUSH1 0x20 ADD DUP3 ADD PUSH1 0x40 MSTORE DUP1 ISZERO PUSH2 0x876 JUMPI DUP2 PUSH1 0x20 ADD PUSH1 0x1 DUP3 MUL DUP1 CALLDATASIZE DUP4 CALLDATACOPY DUP1 DUP3 ADD SWAP2 POP POP SWAP1 POP JUMPDEST POP SWAP1 POP JUMPDEST PUSH0 DUP6 EQ PUSH2 0x901 JUMPI PUSH1 0x1 DUP3 PUSH2 0x88E SWAP2 SWAP1 PUSH2 0xC63 JUMP JUMPDEST SWAP2 POP PUSH1 0xA DUP6 PUSH2 0x89D SWAP2 SWAP1 PUSH2 0xEFC JUMP JUMPDEST PUSH1 0x30 PUSH2 0x8A9 SWAP2 SWAP1 PUSH2 0xD67 JUMP JUMPDEST PUSH1 0xF8 SHL DUP2 DUP4 DUP2 MLOAD DUP2 LT PUSH2 0x8BF JUMPI PUSH2 0x8BE PUSH2 0xC09 JUMP JUMPDEST JUMPDEST PUSH1 0x20 ADD ADD SWAP1 PUSH31 0xFFFFFFFFFFFFFFFFFFFFFFFFFFFFFFFFFFFFFFFFFFFFFFFFFFFFFFFFFFFFFF NOT AND SWAP1 DUP2 PUSH0 BYTE SWAP1 MSTORE8 POP PUSH1 0xA DUP6 PUSH2 0x8FA SWAP2 SWAP1 PUSH2 0xCF0 JUMP JUMPDEST SWAP5 POP PUSH2 0x87A JUMP JUMPDEST DUP1 SWAP4 POP POP POP POP JUMPDEST SWAP2 SWAP1 POP JUMP JUMPDEST PUSH0 DUP1 PUSH1 0x4 DUP4 PUSH2 0x91C SWAP2 SWAP1 PUSH2 0xEFC JUMP JUMPDEST EQ DUP1 ISZERO PUSH2 0x935 JUMPI POP PUSH0 PUSH1 0x64 DUP4 PUSH2 0x932 SWAP2 SWAP1 PUSH2 0xEFC JUMP JUMPDEST EQ ISZERO JUMPDEST DUP1 PUSH2 0x94C JUMPI POP PUSH0 PUSH2 0x190 DUP4 PUSH2 0x94A SWAP2 SWAP1 PUSH2 0xEFC JUMP JUMPDEST EQ JUMPDEST SWAP1 POP SWAP2 SWAP1 POP JUMP JUMPDEST PUSH0 DUP2 MLOAD SWAP1 POP SWAP2 SWAP1 POP JUMP JUMPDEST PUSH0 DUP3 DUP3 MSTORE PUSH1 0x20 DUP3 ADD SWAP1 POP SWAP3 SWAP2 POP POP JUMP JUMPDEST PUSH0 DUP2 SWAP1 POP PUSH1 0x20 DUP3 ADD SWAP1 POP SWAP2 SWAP1 POP JUMP JUMPDEST PUSH0 PUSH20 0xFFFFFFFFFFFFFFFFFFFFFFFFFFFFFFFFFFFFFFFF DUP3 AND SWAP1 POP SWAP2 SWAP1 POP JUMP JUMPDEST PUSH0 PUSH2 0x9A5 DUP3 PUSH2 0x97C JUMP JUMPDEST SWAP1 POP SWAP2 SWAP1 POP JUMP JUMPDEST PUSH2 0x9B5 DUP2 PUSH2 0x99B JUMP JUMPDEST DUP3 MSTORE POP POP JUMP JUMPDEST PUSH0 PUSH2 0x9C6 DUP4 DUP4 PUSH2 0x9AC JUMP JUMPDEST PUSH1 0x20 DUP4 ADD SWAP1 POP SWAP3 SWAP2 POP POP JUMP JUMPDEST PUSH0 PUSH1 0x20 DUP3 ADD SWAP1 POP SWAP2 SWAP1 POP JUMP JUMPDEST PUSH0 PUSH2 0x9E8 DUP3 PUSH2 0x953 JUMP JUMPDEST PUSH2 0x9F2 DUP2 DUP6 PUSH2 0x95D JUMP JUMPDEST SWAP4 POP PUSH2 0x9FD DUP4 PUSH2 0x96D JUMP JUMPDEST DUP1 PUSH0 JUMPDEST DUP4 DUP2 LT ISZERO PUSH2 0xA2D JUMPI DUP2 MLOAD PUSH2 0xA14 DUP9 DUP3 PUSH2 0x9BB JUMP JUMPDEST SWAP8 POP PUSH2 0xA1F DUP4 PUSH2 0x9D2 JUMP JUMPDEST SWAP3 POP POP PUSH1 0x1 DUP2 ADD SWAP1 POP PUSH2 0xA00 JUMP JUMPDEST POP DUP6 SWAP4 POP POP POP POP SWAP3 SWAP2 POP POP JUMP JUMPDEST PUSH0 PUSH1 0x20 DUP3 ADD SWAP1 POP DUP2 DUP2 SUB PUSH0 DUP4 ADD MSTORE PUSH2 0xA52 DUP2 DUP5 PUSH2 0x9DE JUMP JUMPDEST SWAP1 POP SWAP3 SWAP2 POP POP JUMP JUMPDEST PUSH0 DUP2 MLOAD SWAP1 POP SWAP2 SWAP1 POP JUMP JUMPDEST PUSH0 DUP3 DUP3 MSTORE PUSH1 0x20 DUP3 ADD SWAP1 POP SWAP3 SWAP2 POP POP JUMP JUMPDEST DUP3 DUP2 DUP4 MCOPY PUSH0 DUP4 DUP4 ADD MSTORE POP POP POP JUMP JUMPDEST PUSH0 PUSH1 0x1F NOT PUSH1 0x1F DUP4 ADD AND SWAP1 POP SWAP2 SWAP1 POP JUMP JUMPDEST PUSH0 PUSH2 0xA9C DUP3 PUSH2 0xA5A JUMP JUMPDEST PUSH2 0xAA6 DUP2 DUP6 PUSH2 0xA64 JUMP JUMPDEST SWAP4 POP PUSH2 0xAB6 DUP2 DUP6 PUSH1 0x20 DUP7 ADD PUSH2 0xA74 JUMP JUMPDEST PUSH2 0xABF DUP2 PUSH2 0xA82 JUMP JUMPDEST DUP5 ADD SWAP2 POP POP SWAP3 SWAP2 POP POP JUMP JUMPDEST PUSH0 PUSH1 0x20 DUP3 ADD SWAP1 POP DUP2 DUP2 SUB PUSH0 DUP4 ADD MSTORE PUSH2 0xAE2 DUP2 DUP5 PUSH2 0xA92 JUMP JUMPDEST SWAP1 POP SWAP3 SWAP2 POP POP JUMP JUMPDEST PUSH0 DUP1 REVERT JUMPDEST PUSH0 DUP2 SWAP1 POP SWAP2 SWAP1 POP JUMP JUMPDEST PUSH2 0xB00 DUP2 PUSH2 0xAEE JUMP JUMPDEST DUP2 EQ PUSH2 0xB0A JUMPI PUSH0 DUP1 REVERT JUMPDEST POP JUMP JUMPDEST PUSH0 DUP2 CALLDATALOAD SWAP1 POP PUSH2 0xB1B DUP2 PUSH2 0xAF7 JUMP JUMPDEST SWAP3 SWAP2 POP POP JUMP JUMPDEST PUSH0 PUSH1 0x20 DUP3 DUP5 SUB SLT ISZERO PUSH2 0xB36 JUMPI PUSH2 0xB35 PUSH2 0xAEA JUMP JUMPDEST JUMPDEST PUSH0 PUSH2 0xB43 DUP5 DUP3 DUP6 ADD PUSH2 0xB0D JUMP JUMPDEST SWAP2 POP POP SWAP3 SWAP2 POP POP JUMP JUMPDEST PUSH2 0xB55 DUP2 PUSH2 0x99B JUMP JUMPDEST DUP2 EQ PUSH2 0xB5F JUMPI PUSH0 DUP1 REVERT JUMPDEST POP JUMP JUMPDEST PUSH0 DUP2 CALLDATALOAD SWAP1 POP PUSH2 0xB70 DUP2 PUSH2 0xB4C JUMP JUMPDEST SWAP3 SWAP2 POP POP JUMP JUMPDEST PUSH0 PUSH1 0x20 DUP3 DUP5 SUB SLT ISZERO PUSH2 0xB8B JUMPI PUSH2 0xB8A PUSH2 0xAEA JUMP JUMPDEST JUMPDEST PUSH0 PUSH2 0xB98 DUP5 DUP3 DUP6 ADD PUSH2 0xB62 JUMP JUMPDEST SWAP2 POP POP SWAP3 SWAP2 POP POP JUMP JUMPDEST PUSH32 0x7072696365206973207A65726F00000000000000000000000000000000000000 PUSH0 DUP3 ADD MSTORE POP JUMP JUMPDEST PUSH0 PUSH2 0xBD5 PUSH1 0xD DUP4 PUSH2 0xA64 JUMP JUMPDEST SWAP2 POP PUSH2 0xBE0 DUP3 PUSH2 0xBA1 JUMP JUMPDEST PUSH1 0x20 DUP3 ADD SWAP1 POP SWAP2 SWAP1 POP JUMP JUMPDEST PUSH0 PUSH1 0x20 DUP3 ADD SWAP1 POP DUP2 DUP2 SUB PUSH0 DUP4 ADD MSTORE PUSH2 0xC02 DUP2 PUSH2 0xBC9 JUMP JUMPDEST SWAP1 POP SWAP2 SWAP1 POP JUMP JUMPDEST PUSH32 0x4E487B7100000000000000000000000000000000000000000000000000000000 PUSH0 MSTORE PUSH1 0x32 PUSH1 0x4 MSTORE PUSH1 0x24 PUSH0 REVERT JUMPDEST PUSH32 0x4E487B7100000000000000000000000000000000000000000000000000000000 PUSH0 MSTORE PUSH1 0x11 PUSH1 0x4 MSTORE PUSH1 0x24 PUSH0 REVERT JUMPDEST PUSH0 PUSH2 0xC6D DUP3 PUSH2 0xAEE JUMP JUMPDEST SWAP2 POP PUSH2 0xC78 DUP4 PUSH2 0xAEE JUMP JUMPDEST SWAP3 POP DUP3 DUP3 SUB SWAP1 POP DUP2 DUP2 GT ISZERO PUSH2 0xC90 JUMPI PUSH2 0xC8F PUSH2 0xC36 JUMP JUMPDEST JUMPDEST SWAP3 SWAP2 POP POP JUMP JUMPDEST PUSH32 0x4E487B7100000000000000000000000000000000000000000000000000000000 PUSH0 MSTORE PUSH1 0x31 PUSH1 0x4 MSTORE PUSH1 0x24 PUSH0 REVERT JUMPDEST PUSH32 0x4E487B7100000000000000000000000000000000000000000000000000000000 PUSH0 MSTORE PUSH1 0x12 PUSH1 0x4 MSTORE PUSH1 0x24 PUSH0 REVERT JUMPDEST PUSH0 PUSH2 0xCFA DUP3 PUSH2 0xAEE JUMP JUMPDEST SWAP2 POP PUSH2 0xD05 DUP4 PUSH2 0xAEE JUMP JUMPDEST SWAP3 POP DUP3 PUSH2 0xD15 JUMPI PUSH2 0xD14 PUSH2 0xCC3 JUMP JUMPDEST JUMPDEST DUP3 DUP3 DIV SWAP1 POP SWAP3 SWAP2 POP POP JUMP JUMPDEST PUSH0 PUSH2 0xD2A DUP3 PUSH2 0xAEE JUMP JUMPDEST SWAP2 POP PUSH32 0xFFFFFFFFFFFFFFFFFFFFFFFFFFFFFFFFFFFFFFFFFFFFFFFFFFFFFFFFFFFFFFFF DUP3 SUB PUSH2 0xD5C JUMPI PUSH2 0xD5B PUSH2 0xC36 JUMP JUMPDEST JUMPDEST PUSH1 0x1 DUP3 ADD SWAP1 POP SWAP2 SWAP1 POP JUMP JUMPDEST PUSH0 PUSH2 0xD71 DUP3 PUSH2 0xAEE JUMP JUMPDEST SWAP2 POP PUSH2 0xD7C DUP4 PUSH2 0xAEE JUMP JUMPDEST SWAP3 POP DUP3 DUP3 ADD SWAP1 POP DUP1 DUP3 GT ISZERO PUSH2 0xD94 JUMPI PUSH2 0xD93 PUSH2 0xC36 JUMP JUMPDEST JUMPDEST SWAP3 SWAP2 POP POP JUMP JUMPDEST PUSH0 DUP2 SWAP1 POP SWAP3 SWAP2 POP POP JUMP JUMPDEST PUSH32 0x3000000000000000000000000000000000000000000000000000000000000000 PUSH0 DUP3 ADD MSTORE POP JUMP JUMPDEST PUSH0 PUSH2 0xDD8 PUSH1 0x1 DUP4 PUSH2 0xD9A JUMP JUMPDEST SWAP2 POP PUSH2 0xDE3 DUP3 PUSH2 0xDA4 JUMP JUMPDEST PUSH1 0x1 DUP3 ADD SWAP1 POP SWAP2 SWAP1 POP JUMP JUMPDEST PUSH0 PUSH2 0xDF8 DUP3 PUSH2 0xA5A JUMP JUMPDEST PUSH2 0xE02 DUP2 DUP6 PUSH2 0xD9A JUMP JUMPDEST SWAP4 POP PUSH2 0xE12 DUP2 DUP6 PUSH1 0x20 DUP7 ADD PUSH2 0xA74 JUMP JUMPDEST DUP1 DUP5 ADD SWAP2 POP POP SWAP3 SWAP2 POP POP JUMP JUMPDEST PUSH0 PUSH2 0xE28 DUP3 PUSH2 0xDCC JUMP JUMPDEST SWAP2 POP PUSH2 0xE34 DUP3 DUP5 PUSH2 0xDEE JUMP JUMPDEST SWAP2 POP DUP2 SWAP1 POP SWAP3 SWAP2 POP POP JUMP JUMPDEST PUSH32 0x2D00000000000000000000000000000000000000000000000000000000000000 PUSH0 DUP3 ADD MSTORE POP JUMP JUMPDEST PUSH0 PUSH2 0xE73 PUSH1 0x1 DUP4 PUSH2 0xD9A JUMP JUMPDEST SWAP2 POP PUSH2 0xE7E DUP3 PUSH2 0xE3F JUMP JUMPDEST PUSH1 0x1 DUP3 ADD SWAP1 POP SWAP2 SWAP1 POP JUMP JUMPDEST PUSH0 PUSH2 0xE94 DUP3 DUP7 PUSH2 0xDEE JUMP JUMPDEST SWAP2 POP PUSH2 0xE9F DUP3 PUSH2 0xE67 JUMP JUMPDEST SWAP2 POP PUSH2 0xEAB DUP3 DUP6 PUSH2 0xDEE JUMP JUMPDEST SWAP2 POP PUSH2 0xEB6 DUP3 PUSH2 0xE67 JUMP JUMPDEST SWAP2 POP PUSH2 0xEC2 DUP3 DUP5 PUSH2 0xDEE JUMP JUMPDEST SWAP2 POP DUP2 SWAP1 POP SWAP5 SWAP4 POP POP POP POP JUMP JUMPDEST PUSH32 0x4E487B7100000000000000000000000000000000000000000000000000000000 PUSH0 MSTORE PUSH1 0x41 PUSH1 0x4 MSTORE PUSH1 0x24 PUSH0 REVERT JUMPDEST PUSH0 PUSH2 0xF06 DUP3 PUSH2 0xAEE JUMP JUMPDEST SWAP2 POP PUSH2 0xF11 DUP4 PUSH2 0xAEE JUMP JUMPDEST SWAP3 POP DUP3 PUSH2 0xF21 JUMPI PUSH2 0xF20 PUSH2 0xCC3 JUMP JUMPDEST JUMPDEST DUP3 DUP3 MOD SWAP1 POP SWAP3 SWAP2 POP POP JUMP INVALID LOG2 PUSH5 0x6970667358 0x22 SLT KECCAK256 CALLDATALOAD PUSH20 0x3645B06B4F019865F74A8AFD68CCCC1E480974E PUSH25 0x37FC97CA3CE5C1DD4564736F6C634300081A00330000000000 "
				},
				"gasEstimates": {
					"creation": {
						"codeDepositCost": "787600",
						"executionCost": "54410",
						"totalCost": "842010"
					},
					"external": {
						"addUserPrice(uint256)": "infinite",
						"getCurrentDate()": "infinite",
						"getUsers()": "infinite",
						"removePrice(address)": "infinite"
					},
					"internal": {
						"expire()": "infinite",
						"getName()": "infinite"
					}
				},
				"methodIdentifiers": {
					"addUserPrice(uint256)": "bab1dac8",
					"getCurrentDate()": "9254d772",
					"getUsers()": "00ce8e3e",
					"removePrice(address)": "f4961fa3"
				}
			},
			"storageLayout": {
				"storage": [
					{
						"astId": 365,
						"contract": "contracts/tamrin.sol:tamrin",
						"label": "maxUserID",
						"offset": 0,
						"slot": "0",
						"type": "t_uint256"
					},
					{
						"astId": 369,
						"contract": "contracts/tamrin.sol:tamrin",
						"label": "_usersPrices",
						"offset": 0,
						"slot": "1",
						"type": "t_mapping(t_address,t_uint256)"
					},
					{
						"astId": 373,
						"contract": "contracts/tamrin.sol:tamrin",
						"label": "_checkUsers",
						"offset": 0,
						"slot": "2",
						"type": "t_mapping(t_address,t_bool)"
					},
					{
						"astId": 376,
						"contract": "contracts/tamrin.sol:tamrin",
						"label": "_users",
						"offset": 0,
						"slot": "3",
						"type": "t_array(t_address)dyn_storage"
					},
					{
						"astId": 378,
						"contract": "contracts/tamrin.sol:tamrin",
						"label": "owner",
						"offset": 0,
						"slot": "4",
						"type": "t_address"
					},
					{
						"astId": 381,
						"contract": "contracts/tamrin.sol:tamrin",
						"label": "status",
						"offset": 20,
						"slot": "4",
						"type": "t_bool"
					}
				],
				"types": {
					"t_address": {
						"encoding": "inplace",
						"label": "address",
						"numberOfBytes": "20"
					},
					"t_array(t_address)dyn_storage": {
						"base": "t_address",
						"encoding": "dynamic_array",
						"label": "address[]",
						"numberOfBytes": "32"
					},
					"t_bool": {
						"encoding": "inplace",
						"label": "bool",
						"numberOfBytes": "1"
					},
					"t_mapping(t_address,t_bool)": {
						"encoding": "mapping",
						"key": "t_address",
						"label": "mapping(address => bool)",
						"numberOfBytes": "32",
						"value": "t_bool"
					},
					"t_mapping(t_address,t_uint256)": {
						"encoding": "mapping",
						"key": "t_address",
						"label": "mapping(address => uint256)",
						"numberOfBytes": "32",
						"value": "t_uint256"
					},
					"t_uint256": {
						"encoding": "inplace",
						"label": "uint256",
						"numberOfBytes": "32"
					}
				}
			},
			"userdoc": {
				"kind": "user",
				"methods": {},
				"version": 1
			}
		}
	}
}